:020000040800F2
:1000000000500020153D0008293C0008353C000840
:100010003B3C0008413C0008473C00080000000051
:100020000000000000000000000000004D3C00083F
:10003000593C000800000000653C0008713C0008C5
:100040005D3D00085D3D00085D3D00085D3D000828
:100050005D3D00085D3D00087D3C00085D3D0008F9
:100060005D3D00085D3D00085D3D00085D3D000808
:100070005D3D00085D3D00085D3D00085D3D0008F8
:100080005D3D0008A13C00085D3D00085D3D0008A5
:100090005D3D00085D3D00085D3D00085D3D0008D8
:1000A0005D3D00085D3D00085D3D00085D3D0008C8
:1000B0005D3D00085D3D00085D3D00085D3D0008B8
:1000C0005D3D00085D3D00085D3D00085D3D0008A8
:1000D0005D3D00085D3D00085D3D00085D3D000898
:1000E0005D3D00085D3D00085D3D0008000000002A
:1000F0000000000000000000000000000000000000
:0C01000000000000000000005FF808F1A3
:1001100010B5054C237833B9044B13B10448AFF341
:1001200000800123237010BDDC01002000000000CE
:100130004C5E000808B5034B1BB103490348AFF3FD
:10014000008008BD00000000E00100204C5E0008B7
:1001500081F0004102E000BF83F0004330B54FEA78
:1001600041044FEA430594EA050F08BF90EA020FE5
:100170001FBF54EA000C55EA020C7FEA645C7FEA78
:10018000655C00F0E2804FEA5454D4EB5555B8BF9B
:100190006D420CDD2C4480EA020281EA030382EA0C
:1001A000000083EA010180EA020281EA0303362D9E
:1001B00088BF30BD11F0004F4FEA01314FF4801C71
:1001C0004CEA113102D0404261EB410113F0004F83
:1001D0004FEA03334CEA133302D0524263EB43033A
:1001E00094EA050F00F0A780A4F10104D5F1200ED8
:1001F0000DDB02FA0EFC22FA05F2801841F1000133
:1002000003FA0EF2801843FA05F359410EE0A5F106
:1002100020050EF1200E012A03FA0EFC28BF4CF037
:10022000020C43FA05F3C01851EBE37101F00045ED
:1002300007D54FF0000EDCF1000C7EEB00006EEBFA
:100240000101B1F5801F1BD3B1F5001F0CD3490884
:100250005FEA30004FEA3C0C04F101044FEA4452DB
:1002600012F5800F80F09A80BCF1004F08BF5FEA62
:10027000500C50F1000041EB045141EA050130BD42
:100280005FEA4C0C404141EB010111F4801FA4F1E5
:100290000104E9D191F0000F04BF01460020B1FA3A
:1002A00081F308BF2033A3F10B03B3F120020CDA72
:1002B0000C3208DD02F1140CC2F10C0201FA0CF050
:1002C00021FA02F10CE002F11402D8BFC2F1200CB5
:1002D00001FA02F120FA0CFCDCBF41EA0C0190406B
:1002E000E41AA2BF01EB0451294330BD6FEA0404B4
:1002F0001F3C1CDA0C340EDC04F11404C4F120029F
:1003000020FA04F001FA02F340EA030021FA04F3B0
:1003100045EA030130BDC4F10C04C4F1200220FA07
:1003200002F001FA04F340EA0300294630BD21FA45
:1003300004F0294630BD94F0000F83F4801306BF0B
:1003400081F480110134013D4EE77FEA645C18BFFF
:100350007FEA655C29D094EA050F08BF90EA020F96
:1003600005D054EA000C04BF1946104630BD91EA8E
:10037000030F1EBF0021002030BD5FEA545C05D191
:100380004000494128BF41F0004130BD14F58004D0
:100390003CBF01F5801130BD01F0004545F0FE4144
:1003A00041F470014FF0000030BD7FEA645C1ABF79
:1003B000194610467FEA655C1CBF0B46024650EAB0
:1003C000013406BF52EA033591EA030F41F40021DC
:1003D00030BD00BF90F0000F04BF0021704730B562
:1003E0004FF4806404F132044FF000054FF0000137
:1003F00050E700BF90F0000F04BF0021704730B5F8
:100400004FF4806404F1320410F0004548BF4042CC
:100410004FF000013EE700BF42004FEAE2014FEA21
:1004200031014FEA02701FBF12F07F4393F07F4FFC
:1004300081F06051704732F07F4208BF704793F0FF
:100440007F4F04BF41F40021704730B54FF4607412
:1004500001F0004521F000411CE700BF50EA010215
:1004600008BF704730B54FF000050AE050EA0102BE
:1004700008BF704730B511F0004502D5404261EB2E
:1004800041014FF4806404F132045FEA915C3FF46F
:10049000D8AE4FF003025FEADC0C18BF03325FEA0C
:1004A000DC0C18BF033202EBDC02C2F1200300FABD
:1004B00003FC20FA02F001FA03FE40EA0E0021FAE2
:1004C00002F11444BDE600BF70B54FF0FF0C4CF4D0
:1004D000E06C1CEA11541DBF1CEA135594EA0C0F82
:1004E00095EA0C0F00F0DEF82C4481EA030621EABD
:1004F0004C5123EA4C5350EA013518BF52EA0335F8
:1005000041F4801143F4801338D0A0FB02CE4FF0A9
:100510000005E1FB02E506F00042E0FB03E54FF0D9
:100520000006E1FB03569CF0000F18BF4EF0010ED1
:10053000A4F1FF04B6F5007F64F5407404D25FEACD
:100540004E0E6D4146EB060642EAC62141EA555180
:100550004FEAC52040EA5E504FEACE2EB4F1FD0CC2
:1005600088BFBCF5E06F1ED8BEF1004F08BF5FEA40
:10057000500E50F1000041EB045170BD06F00046F2
:1005800046EA010140EA020081EA0301B4EB5C049F
:10059000C2BFD4EB0C0541EA045170BD41F4801197
:1005A0004FF0000E013C00F3AB8014F1360FDEBFBC
:1005B000002001F0004170BDC4F10004203C35DA98
:1005C0000C341BDC04F11404C4F1200500FA05F31B
:1005D00020FA04F001FA05F240EA020001F00042BC
:1005E00021F0004110EBD37021FA04F642EB060132
:1005F0005EEA430E08BF20EAD37070BDC4F10C045C
:10060000C4F1200500FA04F320FA05F001FA04F21F
:1006100040EA020001F0004110EBD37041F100010B
:100620005EEA430E08BF20EAD37070BDC4F1200516
:1006300000FA05F24EEA020E20FA04F301FA05F27E
:1006400043EA020321FA04F001F0004121FA04F226
:1006500020EA020000EBD3705EEA430E08BF20EAF6
:10066000D37070BD94F0000F0FD101F00046400030
:1006700041EB010111F4801F08BF013CF7D041EAB2
:10068000060195F0000F18BF704703F000465200B6
:1006900043EB030313F4801F08BF013DF7D043EA87
:1006A0000603704794EA0C0F0CEA135518BF95EA3D
:1006B0000C0F0CD050EA410618BF52EA4306D1D1C4
:1006C00081EA030101F000414FF0000070BD50EAE3
:1006D000410606BF1046194652EA430619D094EA6D
:1006E0000C0F02D150EA013613D195EA0C0F05D157
:1006F00052EA03361CBF104619460AD181EA0301AB
:1007000001F0004141F0FE4141F470014FF0000062
:1007100070BD41F0FE4141F4780170BD70B54FF0FD
:10072000FF0C4CF4E06C1CEA11541DBF1CEA13557D
:1007300094EA0C0F95EA0C0F00F0A7F8A4EB05045F
:1007400081EA030E52EA03354FEA013100F0888056
:100750004FEA03334FF0805545EA131343EA12631F
:100760004FEA022245EA111545EA10654FEA0026D4
:100770000EF000419D4208BF964244F1FD0404F58D
:10078000407402D25B084FEA3202B61A65EB0305E9
:100790005B084FEA32024FF480104FF4002CB6EBA6
:1007A000020E75EB030E22BFB61A754640EA0C0026
:1007B0005B084FEA3202B6EB020E75EB030E22BF66
:1007C000B61A754640EA5C005B084FEA3202B6EBA7
:1007D000020E75EB030E22BFB61A754640EA9C0066
:1007E0005B084FEA3202B6EB020E75EB030E22BF36
:1007F000B61A754640EADC0055EA060E18D04FEAF4
:10080000051545EA16754FEA06164FEAC30343EA93
:1008100052734FEAC2025FEA1C1CC0D111F4801F60
:100820000BD141EA00014FF000004FF0004CB6E759
:1008300011F4801F04BF01430020B4F1FD0C88BFF8
:10084000BCF5E06F3FF6AFAEB5EB030C04BFB6EB03
:10085000020C5FEA500C50F1000041EB045170BDF6
:100860000EF0004E4EEA113114EB5C04C2BFD4EB23
:100870000C0541EA045170BD41F480114FF0000EA7
:10088000013C90E645EA060E8DE60CEA135594EA23
:100890000C0F08BF95EA0C0F3FF43BAF94EA0C0F26
:1008A0000AD150EA01347FF434AF95EA0C0F7FF49B
:1008B00025AF104619462CE795EA0C0F06D152EAEF
:1008C00003353FF4FDAE1046194622E750EA4106D3
:1008D00018BF52EA43067FF4C5AE50EA41047FF4E4
:1008E0000DAF52EA43057FF4EBAE12E74FF0FF3C49
:1008F00006E000BF4FF0010C02E000BF4FF0010C1A
:100900004DF804CD4FEA410C7FEA6C5C4FEA430C92
:1009100018BF7FEA6C5C1BD001B050EA410C0CBFE1
:1009200052EA430C91EA030F02BF90EA020F002043
:10093000704710F1000F91EA030F58BF994208BFAA
:1009400090422CBFD8176FEAE37040F00100704767
:100950004FEA410C7FEA6C5C02D150EA013C07D1BE
:100960004FEA430C7FEA6C5CD6D152EA033CD3D009
:100970005DF8040B704700BF8446104662468C4603
:100980001946634600E000BF01B5FFF7B7FF002836
:1009900048BF10F1000F01BD4DF808EDFFF7F4FF5F
:1009A0000CBF012000205DF808FB00BF4DF808EDEA
:1009B000FFF7EAFF34BF012000205DF808FB00BF0D
:1009C0004DF808EDFFF7E0FF94BF012000205DF82F
:1009D00008FB00BF4DF808EDFFF7CEFF94BF0120E4
:1009E00000205DF808FB00BF4DF808EDFFF7C4FFDD
:1009F00034BF012000205DF808FB00BF4FEA410C26
:100A00007FEA6C5C02D150EA013C0AD14FEA430C08
:100A10007FEA6C5C02D152EA033C02D14FF0000045
:100A200070474FF0010070474FEA4102B2F1E043D6
:100A300024BFB3F5001CDCF1FE5C0DD901F0004CC5
:100A40004FEAC0024CEA5070B2F1004F40EB830015
:100A500008BF20F00100704711F0804F21D113F141
:100A60003872BCBF01F00040704741F480114FEA7A
:100A70005252C2F11802C2F1200C10FA0CF320FA03
:100A800002F018BF40F001004FEAC1234FEAD32320
:100A900003FA0CFC40EA0C0023FA02F34FEA43038A
:100AA000CCE77FEA625307D150EA01331EBF4FF013
:100AB000FE4040F44000704701F0004040F0FE402E
:100AC00040F40000704700BF80F0004002E000BF2B
:100AD00081F0004142001FBF5FEA410392EA030F29
:100AE0007FEA226C7FEA236C6AD04FEA1262D2EB73
:100AF0001363C1BFD218414048404140B8BF5B4278
:100B0000192B88BF704710F0004F40F4000020F010
:100B10007F4018BF404211F0004F41F4000121F026
:100B20007F4118BF494292EA030F3FD0A2F1010270
:100B300041FA03FC10EB0C00C3F1200301FA03F1AE
:100B400000F0004302D5494260EB4000B0F5000FD1
:100B500013D3B0F1807F06D340084FEA310102F190
:100B60000102FE2A51D2B1F1004F40EBC25008BF42
:100B700020F0010040EA03007047490040EB00000C
:100B800010F4000FA2F10102EDD1B0FA80FCACF13B
:100B9000080CB2EB0C0200FA0CF0AABF00EBC2503A
:100BA00052421843BCBFD0401843704792F0000F28
:100BB00081F4000106BF80F400000132013BB5E77B
:100BC0004FEA41037FEA226C18BF7FEA236C21D0F1
:100BD00092EA030F04D092F0000F08BF0846704756
:100BE00090EA010F1CBF0020704712F07F4F04D124
:100BF000400028BF40F00040704712F100723CBF37
:100C000000F50000704700F0004343F0FE4040F460
:100C1000000070477FEA226216BF08467FEA23631E
:100C20000146420206BF5FEA412390EA010F40F409
:100C3000800070474FF0000304E000BF10F0004355
:100C400048BF40425FEA000C08BF704743F096433C
:100C500001464FF000001CE050EA010208BF704757
:100C60004FF000030AE000BF50EA010208BF7047DE
:100C700011F0004302D5404261EB41015FEA010CF3
:100C800002BF84460146002043F0B64308BFA3F1EB
:100C90008053A3F50003BCFA8CF2083AA3EBC253CD
:100CA00010DB01FA02FC634400FA02FCC2F12002EC
:100CB000BCF1004F20FA02F243EB020008BF20F023
:100CC0000100704702F1200201FA02FCC2F1200289
:100CD00050EA4C0021FA02F243EB020008BF20EA7E
:100CE000DC7070474FF0FF0C1CEAD0521EBF1CEAAC
:100CF000D15392EA0C0F93EA0C0F6FD01A4480EA9A
:100D0000010C400218BF5FEA41211ED04FF0006382
:100D100043EA501043EA5111A0FB01310CF00040AE
:100D2000B1F5000F3EBF490041EAD3715B0040EAD4
:100D3000010062F17F02FD2A1DD8B3F1004F40EBA4
:100D4000C25008BF20F00100704790F0000F0CF077
:100D5000004C08BF49024CEA502040EA51207F3A3B
:100D6000C2BFD2F1FF0340EAC250704740F4000016
:100D70004FF00003013A5DDC12F1190FDCBF00F007
:100D800000407047C2F10002410021FA02F1C2F1B5
:100D9000200200FA02FC5FEA310040F1000053EA51
:100DA0004C0308BF20EADC70704792F0000F00F09F
:100DB000004C02BF400010F4000F013AF9D040EAA5
:100DC0000C0093F0000F01F0004C02BF490011F439
:100DD000000F013BF9D041EA0C018FE70CEAD15337
:100DE00092EA0C0F18BF93EA0C0F0AD030F0004CB7
:100DF00018BF31F0004CD8D180EA010000F000406B
:100E0000704790F0000F17BF90F0004F084691F028
:100E1000000F91F0004F14D092EA0C0F01D1420262
:100E20000FD193EA0C0F03D14B0218BF084608D12B
:100E300080EA010000F0004040F0FE4040F4000075
:100E4000704740F0FE4040F4400070474FF0FF0C08
:100E50001CEAD0521EBF1CEAD15392EA0C0F93EA4F
:100E60000C0F69D0A2EB030280EA010C49024FEAA1
:100E7000402037D04FF0805343EA111143EA10135A
:100E80000CF000408B4238BF5B0042F17D024FF412
:100E9000000C8B4224BF5B1A40EA0C00B3EB510FED
:100EA00024BFA3EB510340EA5C00B3EB910F24BFD6
:100EB000A3EB910340EA9C00B3EBD10F24BFA3EB5B
:100EC000D10340EADC001B0118BF5FEA1C1CE0D123
:100ED000FD2A3FF650AF8B4240EBC25008BF20F0D6
:100EE000010070470CF0004C4CEA50207F32C2BF2A
:100EF000D2F1FF0340EAC250704740F400004FF0C7
:100F00000003013A37E792F0000F00F0004C02BFF7
:100F1000400010F4000F013AF9D040EA0C0093F0C1
:100F2000000F01F0004C02BF490011F4000F013B1B
:100F3000F9D041EA0C0195E70CEAD15392EA0C0F83
:100F400008D142027FF47DAF93EA0C0F7FF470AFBB
:100F5000084676E793EA0C0F04D14B023FF44CAFFE
:100F600008466EE730F0004C18BF31F0004CCAD193
:100F700030F000427FF45CAF31F000437FF43CAFCF
:100F80005FE700BF034613F8012B002AFBD1181AB4
:100F9000013870474FEA410212F5001215D211D5FF
:100FA0006FF47873B3EB625212D94FEAC12343F066
:100FB000004343EA505311F0004F23FA02F018BFE8
:100FC000404270474FF00000704750EA013005D1B1
:100FD00011F0004008BF6FF0004070474FF0000074
:100FE000704700BF80B500AF084B1B68074A43F04D
:100FF00010031360032000F007F9002000F008F848
:1010000002F070FD0023184680BD00BF00200240A2
:1010100080B582B000AF7860124B1A68124B1B7813
:1010200019464FF47A73B3FBF1F3B2FBF3F31846AE
:1010300000F011F90346002B01D001230EE07B687C
:101040000F2B0AD8002279684FF0FF3000F0E7F844
:10105000064A7B681360002300E001231846083726
:10106000BD4680BD080000200400002000000020D4
:1010700080B400AF054B1B781A46054B1B68134420
:10108000034A136000BFBD4680BC704704000020C7
:101090000802002080B400AF024B1B681846BD4612
:1010A00080BC70470802002080B485B000AF786033
:1010B0007B6803F00703FB600C4BDB68BB60BA681E
:1010C0004FF6FF031340BB60FB681A02BB68134373
:1010D00043F0BF6343F40033BB60044ABB68D36092
:1010E00000BF1437BD4680BC704700BF00ED00E074
:1010F00080B400AF044BDB681B0A03F007031846FB
:10110000BD4680BC704700BF00ED00E080B483B0F6
:1011100000AF03463960FB7197F90730002B0BDAFB
:101120003B68DAB20C49FB7903F00F03043B120170
:10113000D2B20B441A7609E03B68DAB2074997F954
:1011400007301201D2B20B4483F8002300BF0C37E2
:10115000BD4680BC704700BF00ED00E000E100E04C
:1011600080B489B000AFF860B9607A60FB6803F0C2
:101170000703FB61FB69C3F10703042B28BF0423AA
:10118000BB61FB690433062B02D9FB69033B00E01A
:1011900000237B614FF0FF32BB6902FA03F3DA43AD
:1011A000BB681A407B699A404FF0FF317B6901FAB6
:1011B00003F3D9437B680B40134318462437BD46DD
:1011C00080BC704780B582B000AF78607B68013B1F
:1011D000B3F1807F01D301230FE00A4A7B68013B12
:1011E00053600F214FF0FF30FFF790FF054B0022B7
:1011F0009A60044B07221A60002318460837BD4640
:1012000080BD00BF10E000E080B582B000AF786024
:101210007868FFF749FF00BF0837BD4680BD80B53D
:1012200086B000AF0346B9607A60FB7300237B6130
:10123000FFF75EFF78617A68B9687869FFF790FF19
:10124000024697F90F3011461846FFF75FFF00BFBF
:101250001837BD4680BD80B582B000AF7860786831
:10126000FFF7B0FF034618460837BD4680BD0000B3
:1012700080B48BB000AF786039600023FB6100233D
:10128000BB6100237B6100233B6200233B610023A1
:101290007B6227E101227B6A02FA03F3FB613B6870
:1012A0001B68FA691340BB61BA69FB699A4240F056
:1012B00016813B685B68122B34D0122B0DD8022BA1
:1012C0002BD0022B04D8002B31D0012B1CD048E0AE
:1012D000032B43D0112B1BD043E0874A934226D0E7
:1012E000854A934206D8854A934220D0844A934245
:1012F0001DD036E0834A934219D0834A934216D0D8
:10130000824A934213D02CE03B68DB683B6228E0C2
:101310003B68DB6804333B6223E03B68DB680833EF
:101320003B621EE03B68DB680C333B6219E03B68C4
:101330009B68002B02D104233B6212E03B689B6850
:10134000012B05D108233B627B68FA691A6108E02A
:1013500008233B627B68FA695A6102E000233B6222
:1013600000BFBB69FF2B01D87B6801E07B680433B9
:10137000FB60BB69FF2B02D87B6A9B0002E07B6AA3
:10138000083B9B003B61FB681A680F213B6901FA2F
:1013900003F3DB431A40396A3B6901FA03F31A434A
:1013A000FB681A603B685B6803F08053002B00F019
:1013B0009680574B9B69564A43F001039361544B07
:1013C0009B6903F00103BB60BB68524A7B6A9B08C0
:1013D000023352F823307B617B6A03F003039B00E6
:1013E0000F2202FA03F3DB437A6913407B617B68C7
:1013F000494A934213D07B68484A93420DD07B6898
:10140000474A934207D07B68464A934201D103235F
:1014100006E0042304E0022302E0012300E00023AD
:101420007A6A02F00302920093407A6913437B6167
:1014300038497B6A9B0802337A6941F823203B686C
:101440005B6803F48033002B06D0374B1A683649AB
:10145000BB6913430B6006E0334B1A68BB69DB437F
:10146000314913400B603B685B6803F40033002B89
:1014700006D02D4B5A682C49BB6913434B6006E0DC
:10148000294B5A68BB69DB43274913404B603B68D3
:101490005B6803F48013002B06D0234B9A68224923
:1014A000BB6913438B6006E01F4B9A68BB69DB4343
:1014B0001D4913408B603B685B6803F40013002BED
:1014C00006D0194BDA681849BB691343CB6006E0B4
:1014D000154BDA68BB69DB4313491340CB607B6A69
:1014E00001337B627B6A0F2B7FF6D4AE00BF2C37B3
:1014F000BD4680BC704700BF0000211000001110E5
:101500000000121000003110000032100000221004
:10151000001002400000014000080140000C0140A2
:1015200000100140001401400004014080B400AFED
:10153000024B1B681846BD4680BC7047080000205F
:1015400080B500AFFFF7F2FF0146054B5B681B0A51
:1015500003F00703034AD35C21FA03F3184680BD66
:1015600000100240405F000880B500AFFFF7DEFFCB
:101570000146054B5B68DB0A03F00703034AD35CB3
:1015800021FA03F3184680BD00100240405F0008B6
:1015900080B582B000AF78607B68002B01D1012359
:1015A0003FE07B6893F83930DBB2002B06D17B68D3
:1015B000002283F83820786802F0C6FA7B6824227B
:1015C00083F839207B681B68DA687B681B6822F423
:1015D0000052DA60786800F00BF97B681B681A69C2
:1015E0007B681B6822F490421A617B681B685A6909
:1015F0007B681B6822F02A025A617B681B68DA68E4
:101600007B681B6842F40052DA607B680022DA6370
:101610007B68202283F839207B68202283F83A20D7
:10162000002318460837BD4680BD80B588B002AF9C
:10163000F860B9603B601346FB8000237B61FB6868
:1016400093F83930DBB2202B40F08380BB68002B4D
:1016500002D0FB88002B01D101237BE0FB6893F8CB
:101660003830012B01D1022374E0FB68012283F89A
:101670003820FB680022DA63FB68212283F83920D6
:10168000FFF708FD7861FB68FA889A84FB68FA889E
:10169000DA8442E0FB68DB8C9BB2013B9AB2FB68C8
:1016A000DA84FB689B68B3F5805F22D13B680093C6
:1016B0007B6900228021F86800F050F80346002B77
:1016C00001D0032346E0BB683B613B691B881A4697
:1016D000FB681B68C2F308025A60FB681B69002B99
:1016E00003D1BB680233BB6017E0BB680133BB604A
:1016F00013E03B6800937B6900228021F86800F0CA
:101700002DF80346002B01D0032323E0BB685A1CAD
:10171000BA601A78FB681B685A60FB68DB8C9BB266
:10172000002BB7D13B6800937B6900224021F86809
:1017300000F014F80346002B01D003230AE0FB68F5
:10174000202283F83920FB68002283F83820002308
:1017500000E0022318461837BD4680BD80B584B02E
:1017600000AFF860B9603B601346FB712CE0BB69C9
:10177000B3F1FF3F28D0BB69002B07D0FFF78AFCED
:1017800002463B68D31ABA699A421DD2FB681B68AD
:10179000DA68FB681B6822F4D072DA60FB681B68A9
:1017A0005A69FB681B6822F001025A61FB6820221B
:1017B00083F83920FB68202283F83A20FB68002256
:1017C00083F8382003230FE0FB681B681A68BB68A6
:1017D0001340BA689A420CBF01230023DBB21A46B9
:1017E000FB799A42C3D0002318461037BD4680BD0E
:1017F000B0B584B000AF78600023FB607B681B68E5
:101800001B6923F440517B68DA687B681B680A43D4
:101810001A617B689A687B681B691A437B685B69FD
:101820001343FA681343FB607B681B68DB6823F48F
:10183000B05323F00C037A681268F9680B43D36045
:101840007B681B685B6923F440717B689A697B68DD
:101850001B680A435A617B681B686F4A93426BD1CD
:10186000FFF782FE024613469B0013449A001A4477
:101870007B685B689B00B2FBF3F3684AA2FB03231F
:101880005B091C01FFF770FE024613469B001344E0
:101890009A001A447B685B689B00B2FBF3F5FFF784
:1018A00063FE024613469B0013449A001A447B6869
:1018B0005B689B00B2FBF3F3584AA2FB03235B096E
:1018C000642202FB03F3EB1A1B013233534AA2FBDF
:1018D00003235B0903F0F0031C44FFF745FE0246B7
:1018E00013469B0013449A001A447B685B689B0074
:1018F000B2FBF3F5FFF738FE024613469B00134494
:101900009A001A447B685B689B00B2FBF3F3434A7E
:10191000A2FB03235B09642202FB03F3EB1A1B0106
:1019200032333E4AA2FB03235B0903F00F027B68BC
:101930001B6822449A606AE0FFF702FE02461346E3
:101940009B0013449A001A447B685B689B00B2FBBF
:10195000F3F3324AA2FB03235B091C01FFF7F0FDFE
:10196000024613469B0013449A001A447B685B6846
:101970009B00B2FBF3F5FFF7E3FD024613469B0025
:1019800013449A001A447B685B689B00B2FBF3F334
:10199000224AA2FB03235B09642202FB03F3EB1A36
:1019A0001B0132331D4AA2FB03235B0903F0F00342
:1019B0001C44FFF7C5FD024613469B0013449A00E2
:1019C0001A447B685B689B00B2FBF3F5FFF7B8FD38
:1019D000024613469B0013449A001A447B685B68D6
:1019E0009B00B2FBF3F30D4AA2FB03235B096422C5
:1019F00002FB03F3EB1A1B013233084AA2FB032359
:101A00005B0903F00F027B681B6822449A6000BFE9
:101A10001037BD46B0BD00BF003801401F85EB51F7
:101A200080B483B000AF7860054B1A6804497B68C6
:101A300013430B6000BF0C37BD4680BC704700BF2E
:101A40000004014080B483B000AF7860054B1A6891
:101A50007B68DB43034913400B6000BF0C37BD4676
:101A600080BC70470004014080B483B000AF786050
:101A7000054B5A6804497B6813434B6000BF0C3721
:101A8000BD4680BC704700BF0004014080B483B0F5
:101A900000AF7860054B5A687B68DB43034913400D
:101AA0004B6000BF0C37BD4680BC7047000401404E
:101AB00080B483B000AF7860054B9A6804497B68B6
:101AC00013438B6000BF0C37BD4680BC704700BF1E
:101AD0000004014080B483B000AF7860054B9A6881
:101AE0007B68DB43034913408B6000BF0C37BD4666
:101AF00080BC70470004014080B483B000AF7860C0
:101B0000054BDA6804497B681343CB6000BF0C3790
:101B1000BD4680BC704700BF0004014080B483B064
:101B200000AF7860054BDA687B68DB4303491340FC
:101B3000CB6000BF0C37BD4680BC7047000401403D
:101B400080B584B000AF78600123FB737B681B799C
:101B5000002B60D07B681B68002B67D07B685B79AB
:101B6000012B0ED0022B17D0002B20D17B681B68D5
:101B70001846FFF78BFF7B681B681846FFF750FF7E
:101B800018E07B681B681846FFF75CFF7B681B68E2
:101B90001846FFF769FF0DE07B681B681846FFF7E2
:101BA0003FFF7B681B681846FFF75EFF02E00023DB
:101BB000FB7300BF7B689B79002B37D07B689B79D8
:101BC000022B0ED0032B17D0012B20D17B681B6872
:101BD0001846FFF7A3FF7B681B681846FFF768FFEE
:101BE00025E07B681B681846FFF774FF7B681B685D
:101BF0001846FFF781FF1AE07B681B681846FFF75D
:101C000057FF7B681B681846FFF776FF0FE000233D
:101C1000FB7300BF0BE07B681B681846FFF712FFE1
:101C20007B681B681846FFF731FF00E000BFFB7BB5
:101C300018461037BD4680BD90B488B000AFF8603C
:101C4000B9607A60FB681A46BB681B0E13441C46D9
:101C50002268BB687B617B6993FAA3F33B613B69B4
:101C6000B3FA83F39B000F2101FA03F3DB431A401D
:101C7000BB68FB61FB6993FAA3F3BB61BB69B3FA71
:101C800083F39B00796801FA03F31343236000BFD9
:101C90002037BD4690BC704790B488B000AFF86064
:101CA000B9607A60FB681A46BB681B0E13441C4679
:101CB0002268BB687B617B6993FAA3F33B613B6954
:101CC000B3FA83F39B00032101FA03F3DB431A40C9
:101CD000BB68FB61FB6993FAA3F3BB61BB69B3FA11
:101CE00083F39B00796801FA03F31343236000BF79
:101CF0002037BD4690BC704790B488B000AFF86004
:101D0000B9607A60FB681A46BB681B0E13441C4618
:101D10002268BB687B617B6993FAA3F33B613B69F3
:101D2000B3FA83F39B00042101FA03F3DB431A4067
:101D3000BB68FB61FB6993FAA3F3BB61BB69B3FAB0
:101D400083F39B00796801FA03F31343236000BF18
:101D50002037BD4690BC704780B487B000AFF860B4
:101D6000B9607A60FB68DA68BB681B0ADB431A401B
:101D7000BB681B0A7B617B6993FAA3F33B613B69F8
:101D8000B3FA83F3796801FA03F31A43FB68DA6064
:101D900000BF1C37BD4680BC704780B588B000AF1F
:101DA000786039603B681B681B021B0C7B617B6998
:101DB0003B613B6993FAA3F3FB60FB68B3FA83F3DF
:101DC000FB6140E00122FB699A407B691340002BD4
:101DD00036D0FB69072B06D840F20112FB6902FAE4
:101DE00003F3BB6108E0FB69083B4FF0011202FA04
:101DF00003F343F08063BB613B685B681A46B969D3
:101E00007868FFF719FF3B681B691A46B96978685B
:101E1000FFF7A2FF3B685B68012B03D03B685B6860
:101E2000092B0DD13B689B681A46B9697868FFF7A2
:101E300033FF3B68DB681A46B9697868FFF75CFFD7
:101E4000FB690133FB617A69FB6922FA03F3002B1A
:101E5000B8D1012318462037BD4680BD80B483B079
:101E600000AF78607B681B6843F001027B681A60F2
:101E700000BF0C37BD4680BC704780B483B000AF54
:101E800078607B681B6823F001027B681A6000BFE2
:101E90000C37BD4680BC704780B485B000AFF86099
:101EA000B9607A60FB689B6823F4034323F0FF0367
:101EB000B9687A680A431A43FB689A6000BF14370E
:101EC000BD4680BC7047000090B484B000AFF8609D
:101ED000B9607A603B6000240024BB683F4AA2FBE3
:101EE00003239C0CFB685B6823F03F0344EA030276
:101EF000FB685A60FB681B6A23F03F027B68384925
:101F00008B4201D8631C08E04FF4967303FB04F383
:101F10003449A1FB03139B0901331A43FB681A627E
:101F20007B682F4A934239D93B68002B17D17A68D6
:101F300013465B001344BA68B2FBF3F3C3F30B031D
:101F4000002B09D07A6813465B001344BA68B2FBD1
:101F5000F3F343F400431DE048F201031AE07A680A
:101F600013469B0013449A001344BA68B2FBF3F380
:101F7000C3F30B03002B0BD07A6813469B0013446A
:101F80009A001344BA68B2FBF3F343F4004301E050
:101F900048F201033A6843EA020410E07B685B0000
:101FA000BA68B2FBF3F3C3F30B03032B05D97B68C9
:101FB0005B00BA68B2FBF3F300E004231C46FB6845
:101FC000DB6923F44F4323F0FF0344EA0302FB6879
:101FD000DA6100BF1037BD4690BC704783DE1B43FB
:101FE000A0860100D34D621080B483B000AF78604A
:101FF00039607B681B6823F01A023B681A437B68D0
:102000001A6000BF0C37BD4680BC704780B483B0F7
:1020100000AF786039607B681B6823F480623B689E
:102020001A437B681A6000BF0C37BD4680BC7047FE
:1020300080B586B000AF786039607868FFF71DFF23
:1020400007F10803184600F07BF839693B685A68C5
:102050003B689B687868FFF737FF3B68D9683B6847
:102060005B691A467868FFF717FF3B681B681946DB
:102070007868FFF7B9FF7868FFF7F0FE3B681B69E7
:1020800019467868FFF7C2FF012318461837BD4686
:1020900080BD000080B400AF034B5B6803F00C030D
:1020A0001846BD4680BC70470010024080B400AFA7
:1020B000034B5B6803F0F0031846BD4680BC7047D5
:1020C0000010024080B400AF034B5B6803F4E06390
:1020D0001846BD4680BC70470010024080B400AF77
:1020E000034B5B6803F460531846BD4680BC7047E1
:1020F0000010024080B400AF034B5B6803F48033F0
:102100001846BD4680BC70470010024080B400AF46
:10211000034B5B6803F470131846BD4680BC7047E0
:102120000010024080B400AF044B5B685B0C03F00E
:1021300001031846BD4680BC704700BF0010024036
:1021400080B582B000AF786000F020F802467B686E
:102150001A607B681B68184600F03AF802467B68F4
:102160005A607B685B68184600F048F802467B6856
:102170009A607B685B68184600F054F802467B68FA
:10218000DA6000BF0837BD4680BD000080B582B070
:1021900000AF00237B60FFF77DFF0346042B06D0D2
:1021A000082B07D0002B09D1084B7B6009E0074BB7
:1021B0007B6006E000F04AF8786002E0034B7B6049
:1021C00000BF7B6818460837BD4680BD00127A0004
:1021D00080B582B000AF7860FFF768FF03461B0947
:1021E00003F00F03044AD35C1A467B68D3401846B9
:1021F0000837BD4680BD00BF305F000880B582B0A3
:1022000000AF7860FFF75EFF03461B0A044AD35C09
:102210001A467B68D34018460837BD4680BD00BFCC
:10222000405F000880B582B000AF7860FFF756FFCE
:102230000346DB0A044AD35C1A467B68D34018463F
:102240000837BD4680BD00BF405F000880B582B042
:1022500000AF00237B6000233B60FFF74BFF38603B
:102260003B68002B03D0B3F5803F03D00BE00D4B50
:102270007B600BE0FFF756FF034601330A4AB2FBCF
:10228000F3F37B6002E0074B7B6000BFFFF73EFF8C
:1022900003469B0C02337A6802FB03F318460837A7
:1022A000BD4680BD00093D0000127A0080B483B0B5
:1022B00000AF786039607A683B68B2FBF3F3074A95
:1022C000013B5360054B00229A60044B05221A60C3
:1022D00000BF0C37BD4680BC704700BF10E000E077
:1022E00080B582B000AF78604FF47A717868FFF7FC
:1022F000DDFF00BF0837BD4680BD000080B485B05B
:1023000000AF78600E4B1B68FB60FB687B68B3F125
:10231000FF3F0CD07B6801337B6008E0084B1B68F3
:1023200003F48033002B02D07B68013B7B607B6829
:10233000002BF3D100BF1437BD4680BC704700BFEF
:1023400010E000E080B483B000AF7860034A7B689F
:10235000136000BF0C37BD4680BC704708000020EA
:1023600080B400AF044BDB681B0A03F00703184678
:10237000BD4680BC704700BF00ED00E080B483B074
:1023800000AF0346FB71FB7903F01F02064997F982
:1023900007305B09012000FA02F241F8232000BF58
:1023A0000C37BD4680BC704700E100E080B483B0CC
:1023B00000AF03463960FB7197F90730002B0BDA49
:1023C0003B68DAB20C49FB7903F00F03043B1201BE
:1023D000D2B20B441A7609E03B68DAB2074997F9A2
:1023E00007301201D2B20B4483F8002300BF0C3730
:1023F000BD4680BC704700BF00ED00E000E100E09A
:1024000080B489B000AFF860B9607A60FB6803F00F
:102410000703FB61FB69C3F10703042B28BF0423F7
:10242000BB61FB690433062B02D9FB69033B00E067
:1024300000237B614FF0FF32BB6902FA03F3DA43FA
:10244000BB681A407B699A404FF0FF317B6901FA03
:1024500003F3D9437B680B40134318462437BD462A
:1024600080BC704780B485B000AFF860B9607A6016
:10247000BB68013B0C4AD35C1A46FB6813441B68DB
:1024800023F4804323F01003BA68013A06498A5CBA
:102490001146FA680A4411467A6813430B6000BF7C
:1024A0001437BD4680BC7047685E000880B485B0B4
:1024B00000AFF860B9607A60BB68013B0B4AD35C3F
:1024C0001A46FB6813441B6823F02002BB68013BDB
:1024D0000649CB5C1946FB680B4419467B681343DD
:1024E0000B6000BF1437BD4680BC7047685E0008B3
:1024F00080B485B000AFF860B9607A60BB68013B1A
:102500000B4AD35C1A46FB6813441B6823F0400255
:10251000BB68013B0649CB5C1946FB680B44194676
:102520007B6813430B6000BF1437BD4680BC704707
:10253000685E000880B485B000AFF860B9607A606A
:10254000BB68013B0B4AD35C1A46FB6813441B680B
:1025500023F08002BB68013B0649CB5C1946FB684F
:102560000B4419467B6813430B6000BF1437BD460C
:1025700080BC7047685E000880B485B000AFF8602A
:10258000B9607A60BB68013B0B4AD35C1A46FB68B2
:1025900013441B6823F44072BB68013B0649CB5CC3
:1025A0001946FB680B4419467B6813430B6000BF58
:1025B0001437BD4680BC7047685E000880B485B0A3
:1025C00000AFF860B9607A60BB68013B0B4AD35C2E
:1025D0001A46FB6813441B6823F44062BB68013B46
:1025E0000649CB5C1946FB680B4419467B681343CC
:1025F0000B6000BF1437BD4680BC7047685E0008A2
:1026000080B485B000AFF860B9607A60BB68013B08
:102610000B4AD35C1A46FB6813441B6823F44052F0
:10262000BB68013B0649CB5C1946FB680B44194665
:102630007B6813430B6000BF1437BD4680BC7047F6
:10264000685E000880B483B000AF78607B681B6868
:1026500023F080027B681A6000BF0C37BD4680BC47
:10266000704780B483B000AF78607B681B6823F04C
:1026700040027B681A6000BF0C37BD4680BC7047C3
:1026800080B483B000AF786039607B68DB6823F08A
:10269000FE023B681A437B68DA6000BF0C37BD4618
:1026A00080BC704780B483B000AF78607B68DB6823
:1026B00023F001027B68DA6000BF0C37BD4680BCA6
:1026C0007047000080B400AF044B1B68034A43F41A
:1026D0008033136000BFBD4680BC704700100240CD
:1026E00080B400AF064B1B6803F40033B3F5003F22
:1026F0000CBF01230023DBB21846BD4680BC7047E7
:102700000010024080B483B000AF7860064B5B6875
:1027100023F0030204497B6813434B6000BF0C376E
:10272000BD4680BC704700BF0010024080B400AFBF
:10273000034B5B6803F00C031846BD4680BC704732
:102740000010024080B483B000AF7860064B5B6835
:1027500023F0F00204497B6813434B6000BF0C3741
:10276000BD4680BC704700BF0010024080B483B0FB
:1027700000AF7860064B5B6823F4E06204497B6835
:1027800013434B6000BF0C37BD4680BC704700BF91
:102790000010024080B483B000AF7860064B5B68E5
:1027A00023F4605204497B6813434B6000BF0C372D
:1027B000BD4680BC704700BF0010024080B400AF2F
:1027C000044B1B68034A43F08073136000BFBD468F
:1027D00080BC70470010024080B400AF064B1B68FD
:1027E00003F00073B3F1007F0CBF01230023DBB2C1
:1027F0001846BD4680BC70470010024080B483B0CC
:1028000000AF78603960084B5B6823F47C127B680A
:1028100003F440313B680B43034913434B6000BF53
:102820000C37BD4680BC70470010024080B485B0B4
:1028300000AF7860084B5A6907497B6813434B61C6
:10284000054B5A697B681340FB60FB6800BF143777
:10285000BD4680BC704700BF0010024080B485B008
:1028600000AF7860084BDA6907497B681343CB6196
:10287000054BDA697B681340FB60FB6800BF1437C7
:10288000BD4680BC704700BF0010024080B485B0D8
:1028900000AF7860084B9A6907497B6813438B61E6
:1028A000054B9A697B681340FB60FB6800BF1437D7
:1028B000BD4680BC704700BF0010024080B483B0AA
:1028C00000AF7860064B1B6823F0070204497B6861
:1028D00013430B6000BF0C37BD4680BC704700BF80
:1028E0000020024080B400AF034B1B6803F00703D5
:1028F0001846BD4680BC70470020024080B483B0BB
:1029000000AF78607B68042B06D1094B1B68084A2E
:1029100043F00403136005E0054B1B68044A23F0F1
:102920000403136000BF0C37BD4680BC704700BF76
:1029300010E000E090B488B000AFF860B9607A6051
:10294000FB681A46BB681B0E13441C462268BB6812
:102950007B617B6993FAA3F33B613B69B3FA83F331
:102960009B000F2101FA03F3DB431A40BB68FB61B4
:10297000FB6993FAA3F3BB61BB69B3FA83F39B00D2
:10298000796801FA03F31343236000BF2037BD4683
:1029900090BC704780B487B000AFF860B9607A60CF
:1029A000FB68DA68BB681B0ADB431A40BB681B0A7A
:1029B0007B617B6993FAA3F33B613B69B3FA83F3D1
:1029C000796801FA03F31A43FB68DA6000BF1C3729
:1029D000BD4680BC7047000080B485B000AF786011
:1029E0003960114A3B68DBB2023352F823203B685E
:1029F0001B0CDB4302EA03013B681B0CFB60FB681A
:102A000093FAA3F3BB60BB68B3FA83F37A689A4086
:102A100005483B68DBB20A43023340F8232000BF7D
:102A20001437BD4680BC70470000014080B584B0BB
:102A300000AF78607868FEF7A5FAF860FB689AB294
:102A40004FF47A7379680348FEF7EFFD00BF103743
:102A5000BD4680BD0C02002080B594B000AF786008
:102A600007F10C037A680949184601F0F5FD0346A1
:102A7000FB64FB6C9AB207F10C014FF47A730448C3
:102A8000FEF7D3FD00BF5037BD4680BD705E000825
:102A90000C02002080B500AF0148FFF7C7FFFEE73A
:102AA000785E000880B590B000AFFEF79BFA00F0AA
:102AB00093F800F08DF900F073F900F0CFF800F012
:102AC00045F93C48FFF7B2FF0023BB7700233B7773
:102AD0000223FB7707237B77002387F8203000232E
:102AE000FB630A23BB63C8237B6307F1240007F160
:102AF0001C030CCB304900F0F6FC07F12403012144
:102B0000184600F0A8FD07F12403184600F06BFDFD
:102B10002A48FFF78BFF07F12403184600F0CCFC8E
:102B2000034687F8333097F83330002B0DD0244814
:102B3000FFF77CFFF86BFFF78FFF2248FFF776FF68
:102B40007B6B1846FFF7DAFB02E01F48FFF76EFFCA
:102B5000FB6B5A1CFA63BA6B9A4203DD97F8333069
:102B6000002BC2D197F83330002B04D01748FFF761
:102B70005DFFFFF78FFF164B93F90030002BFAD063
:102B8000134B00221A703A4607F1240311461846E7
:102B900000F0D2FE0346002BEDD00E48FFF746FFB3
:102BA00007F12403184600F092FC0120FFF7A6FB72
:102BB000E1E700BF8C5E0008005400409C5E000806
:102BC000B45E0008C45E0008C85E0008D45E000859
:102BD000F8010020F05E000880B500AF0220FFF78A
:102BE0006DFEFFF77FFE0346022B01D000F036F9A1
:102BF000FFF768FD00BFFFF773FD0346012BFAD115
:102C00004FF4E0114FF48030FFF7F8FDFFF7D6FDE9
:102C100000BFFFF7E1FD0346012BFAD10020FFF7CB
:102C200091FD4FF48060FFF7A1FD0020FFF7B2FD9A
:102C30000220FFF767FD00BFFFF778FD0346082B72
:102C4000FAD10548FFF74CFB0420FFF757FE024876
:102C5000FFF778FB00BF80BD00A24A0480B58CB0AE
:102C600000AF07F1180300221A605A609A60DA6018
:102C70001A615A613B1D00221A605A609A60DA603C
:102C80001A610820FFF702FE4CF2C0037B600923A3
:102C9000BB600323FB6004233B613B1D19462748AF
:102CA000FFF77BF84FF40010FFF7D8FD0022072153
:102CB0002348FFF7D7FB002207212148FFF7A0FC9C
:102CC000002207211E48FFF7F1FB002207211C48C4
:102CD000FFF70EFC802207211948FFF72BFC00228A
:102CE00007211748FFF748FC002207211448FFF787
:102CF00065FC1448FFF7D6FC1248FFF7B2FC1148F8
:102D0000FFF7A0FC0023BB610F4BFB6100233B627C
:102D100000237B624FF48063BB624FF48043FB620D
:102D200007F1180319460748FFF782F90021054803
:102D3000FFF7A6FC00BF3037BD4680BD000C014048
:102D40000000024000540040801A060080B500AF29
:102D5000114B124A1A60104B4FF4E1325A600E4B7D
:102D600000229A600C4B0022DA600B4B00221A61A1
:102D7000094B0C225A61084B00229A61064B002233
:102D8000DA610548FEF704FC0346002B01D000F091
:102D900065F800BF80BD00BF0C0200200038014074
:102DA00080B500AF0120FFF741FDFFF7D9FA0346D8
:102DB000002200211846FFF723FB03461946112085
:102DC000FFF7F4FA1120FFF7D9FA00BF80BD000029
:102DD00080B582B000AF3B4600221A605A601020D6
:102DE000FFF754FD2020FFF751FD0820FFF74EFDAF
:102DF0000420FFF74BFD4FF470210120FFF7ECFD9D
:102E000001233B6001233B7100237B710223BB71D3
:102E10003B461846FEF794FE002240F201110E4890
:102E2000FFF7B8FD082240F201110B48FFF782FDC1
:102E3000FFF796FA0346002200211846FFF7E0FA52
:102E4000034619460620FFF7B1FA0620FFF796FA67
:102E500000BF0837BD4680BD000C014080B400AF04
:102E600000BFBD4680BC704780B483B000AF7860BF
:102E70007B681B6843F001027B681A6000BF0C3757
:102E8000BD4680BC704780B483B000AF78607B687B
:102E90005B6903F08003802B0CBF01230023DBB2AE
:102EA00018460C37BD4680BC704780B483B000AF75
:102EB00078607B685B6903F00403042B0CBF01237B
:102EC0000023DBB218460C37BD4680BC704780B487
:102ED00083B000AF78607B685B6903F04003402BF0
:102EE0000CBF01230023DBB218460C37BD4680BC63
:102EF000704780B483B000AF78607B685B6903F093
:102F00000103012B0CBF01230023DBB218460C3751
:102F1000BD4680BC704780B483B000AF78607B68EA
:102F20005B6903F00203022B0CBF01230023DBB219
:102F300018460C37BD4680BC704780B485B000AFE2
:102F400078607B685B69FB60FB687B689B69FB6002
:102F5000FB6800BF1437BD4680BC704780B483B0A7
:102F600000AF786039607B681B6823F480623B683F
:102F70001A437B681A6000BF0C37BD4680BC70479F
:102F800080B483B000AF78607B681B6843F48072C4
:102F90007B681A6000BF0C37BD4680BC704780B4A8
:102FA00083B000AF78607B681B6843F400727B6875
:102FB0001A6000BF0C37BD4680BC704780B483B038
:102FC00000AF78607B681B6843F400627B681A601E
:102FD00000BF0C37BD4680BC704780B483B000AFE3
:102FE00078607B681B6823F400627B681A6000BF0E
:102FF0000C37BD4680BC704780B483B000AF7860AA
:103000007B681B69DBB218460C37BD4680BC704735
:1030100080B483B000AF78600B46FB707B681B699F
:1030200023F0FF02FB781A437B681A6100BF0C375C
:10303000BD4680BC7047000080B400AF064B1B68E3
:1030400003F48033B3F5803F0CBF01230023DBB2D0
:103050001846BD4680BC704710E000E080B584B0E3
:1030600000AFF860B9607A600BE0FFF7E5FF034658
:10307000002B06D07B685A1E7A60002B01D10423F6
:1030800006E0FB68B86898470346002BEDD00023A4
:1030900018461037BD4680BD80B586B000AFF860D9
:1030A000B9607A603B607B68002B01D1012371E03D
:1030B0000023FB75FB681B683B613869FFF7D4FE92
:1030C0003869FFF78AFF4FF480613869FFF746FFE0
:1030D0003869FFF755FF3A6839693048FFF7BEFF96
:1030E0000346FB75FB7D002B01D0FB7D52E0FB68A6
:1030F0001B7919463869FFF78BFF3A683969284808
:10310000FFF7ACFF0346FB75FB7D002B01D0FB7D79
:1031100040E03869FFF711FF33E03A683969214828
:10312000FFF79CFF0346FB75FB7D002B01D0FB7D69
:1031300030E0BB685A1CBA601B7819463869FFF743
:1031400067FF3869FFF7B1FE0346002B0DD07B689F
:10315000002B0AD0BB685A1CBA601B781946386924
:10316000FFF756FF7B68013B7B603A6839690E4880
:10317000FFF774FF0346FB75FB7D002B01D0FB7D41
:1031800008E07B685A1E7A60002BC6D13869FFF7C9
:1031900006FF002318461837BD4680BDF32E0008F1
:1031A000172F0008872E0008AB2E000890B587B0B7
:1031B00000AFF860B9607A603B607B68002B01D19A
:1031C000012320E10023FB75FB681B683B61386924
:1031D000FFF74AFE3869FFF700FF4FF48061386956
:1031E000FFF7BCFE3869FFF7CBFE3A6839698848BB
:1031F000FFF734FF0346FB75FB7D002B01D0FB7D01
:1032000001E1FB681B7943F00103DBB21946386921
:10321000FFF7FEFE3A6839697E48FFF71FFF034655
:10322000FB75FB7D002B01D0FB7DECE07B68002B68
:1032300006D13869FFF781FE3869FFF7B0FEDDE09F
:103240007B68012B0CD100213869FFF787FE72B62D
:103250003869FFF772FE3869FFF7A1FE62B6CDE06C
:103260007B68022B0CD13869FFF7A8FE72B638696B
:10327000FFF763FE00213869FFF770FE62B6BDE01C
:103280004FF480613869FFF769FE3869FFF755FE32
:10329000B4E07B68032B00F289807B68012B17D197
:1032A0003A6839695C48FFF7D9FE0346FB75FB7D38
:1032B000002B01D0FB7DA6E0BC68631CBB603869B5
:1032C000FFF79AFE034623707B68013B7B6095E025
:1032D0007B68022B27D13A6839695048FFF7BEFE58
:1032E0000346FB75FB7D002B01D0FB7D8BE072B6A6
:1032F0003869FFF754FEBC68631CBB603869FFF790
:103300007BFE034623707B68013B7B6062B6BC6832
:10331000631CBB603869FFF76FFE034623707B6850
:10332000013B7B606AE03A6839693C48FFF796FEEA
:103330000346FB75FB7D002B01D0FB7D63E0002184
:103340003869FFF70BFE72B6BC68631CBB60386956
:10335000FFF752FE034623707B68013B7B603A68AF
:1033600039692E48FFF77AFE0346FB75FB7D002B7B
:1033700001D0FB7D47E03869FFF711FEBC68631C94
:10338000BB603869FFF738FE034623707B68013B5A
:103390007B6062B6BC68631CBB603869FFF72CFEBB
:1033A000034623707B68013B7B6027E03A683969FC
:1033B0001948FFF753FE0346FB75FB7D002B01D038
:1033C000FB7D20E0BC68631CBB603869FFF714FE1E
:1033D000034623707B68013B7B603869FFF765FD1E
:1033E0000346002B0AD0BC68631CBB603869FFF73A
:1033F00003FE034623707B68013B7B607B68002BE8
:103400007FF447AF002318461C37BD4690BD00BF70
:10341000F32E0008172F0008CF2E0008AB2E00084F
:1034200080B586B000AFF860B9607A603B60FB6839
:10343000DB7A002B02D0FB68DB7A13E03B687A680A
:10344000B968F868FFF728FE0346FB75FB7D002B83
:1034500004D0FB681B681846FFF7A1FDFB68FA7DE6
:10346000DA72FB7D18461837BD4680BD80B586B040
:1034700000AFF860B9607A603B60FB68DB7A002BD4
:1034800002D0FB68DB7A13E03B687A68B968F868B9
:10349000FFF78CFE0346FB75FB7D002B04D0FB6819
:1034A0001B681846FFF77BFDFB68FA7DDA72FB7D2F
:1034B00018461837BD4680BD80B483B000AF786031
:1034C0007B68DB7A18460C37BD4680BC704780B4F9
:1034D00083B000AF78607B680022DA7200BF0C37DF
:1034E000BD4680BC704780B586B000AFF860B9605B
:1034F000394681E80C00FB68002B02D0BB68002B2A
:1035000001D101236BE0FB68BA681A603B7863F075
:103510002F03DAB2FB681A71FB680022DA72752396
:103520007B7507F1150142F210730122F868FFF76D
:1035300077FF0346FB75FB7D002B01D0FB7D4EE042
:1035400007F1160142F210730122F868FFF78EFFAF
:103550000346FB75FB7D002B01D0FB7D3FE0BB7D6F
:10356000682B04D0FB680322DA72032337E07B78F0
:103570001946F86800F04EF80346FB75FB7D002BFA
:1035800001D0FB7D2BE0FB781946F86800F0C9F804
:103590000346FB75FB7D002B01D0FB7D1FE0BB7854
:1035A0001946F86800F070F80346FB75FB7D002BA8
:1035B00001D0FB7D13E03B791946F86800F0FEF876
:1035C0000346FB75FB7D002B01D0FB7D07E0FB680C
:1035D00006333A461068186012791A7100231846AB
:1035E0001837BD4680BD80B584B000AF78606B23CE
:1035F0003B7300237B7307F10C014FF47A730222B3
:103600007868FFF70DFF0346FB73FB7B1846103706
:10361000BD4680BD80B584B000AF78600B46FB70BE
:1036200019233B73FB787B7307F10C014FF47A731A
:1036300002227868FFF7F4FE0346FB73FB7B002B46
:1036400001D0FB7B03E07B68FA78DA71FB7B1846DC
:103650001037BD4680BD80B584B000AF78600B46A2
:10366000FB7038233B73FB787B7307F10C014FF43D
:103670007A7302227868FFF7D3FE0346FB73FB7B65
:1036800018461037BD4680BD80B584B000AF786065
:103690000B46FB701C23BB7307F10E014FF47A73CA
:1036A00001227868FFF7BCFE0346FB73FB7B002B0F
:1036B00001D0FB7B31E007F10D014FF47A73012259
:1036C0007868FFF7D3FE0346FB73FB7B002B01D02A
:1036D000FB7B22E07B7B5BB223F018035AB2FB78C2
:1036E000DB005BB213435BB2DBB27B731C233B7228
:1036F0007B7B7B7207F108014FF47A7302227868B2
:10370000FFF78EFE0346FB73FB7B002B01D0FB7B98
:1037100003E07B68FA781A72002318461037BD461A
:1037200080BD80B584B000AF78600B46FB701B2372
:10373000BB7307F10E014FF47A7301227868FFF72B
:103740006FFE0346FB73FB7B002B01D0FB7B31E05C
:1037500007F10D014FF47A7301227868FFF786FEB6
:103760000346FB73FB7B002B01D0FB7B22E07B7BC2
:103770005BB223F018035AB2FB78DB005BB2134351
:103780005BB2DBB27B731B233B727B7B7B7207F1EB
:1037900008014FF47A7302227868FFF741FE03466E
:1037A000FB73FB7B002B01D0FB7B03E07B68FA788B
:1037B0005A72002318461037BD4680BD80B584B0CC
:1037C00000AF78600B46FB701A23BB7307F10E0144
:1037D0004FF47A7301227868FFF722FE0346FB73E9
:1037E000FB7B002B01D0FB7B33E007F10D014FF495
:1037F0007A7301227868FFF739FE0346FB73FB7B7F
:10380000002B01D0FB7B24E07B7B5BB223F0070322
:103810005AB297F9033003F007035BB213435BB26C
:10382000DBB27B731A233B727B7B7B7207F108014F
:103830004FF47A7302227868FFF7F2FD0346FB73B8
:10384000FB7B002B01D0FB7B03E07B68FA789A724C
:10385000002318461037BD4680BD80B586B000AF46
:10386000786039603B23BB7507F116014FF47A731A
:1038700001227868FFF7D4FD0346FB75FB7D002B22
:1038800001D0FB7D54E007F108014FF47A730E225A
:103890007868FFF7EBFD0346FB75FB7D002B01D03D
:1038A000FB7D45E03B7A1B021AB27B7A1BB21343C5
:1038B0001AB23B681A80BB7A1B0219B2FB7A1AB2A1
:1038C0003B6802330A4312B21A803B7B1B0219B2D7
:1038D0007B7B1AB23B6804330A4312B21A80BB7B6B
:1038E0001B0219B2FB7B1AB23B6806330A4312B2C1
:1038F0001A803B7C1B0219B27B7C1AB23B680833EE
:103900000A4312B21A80BB7C1B0219B2FB7C1AB2AA
:103910003B680A330A4312B21A803B7D1B0219B27C
:103920007B7D1AB23B680C330A4312B21A80002323
:1039300018461837BD4680BD80B58AB000AF7860A4
:10394000396007F10C0319467868FFF786FF0346D4
:1039500087F8273097F82730002B02D097F82730C8
:103960006CE07B681B7A184600F090F838627B6840
:103970005B7A184600F0A0F8F861B7F90C301846E9
:10398000FDF75CF90346396A1846FDF75FFA03460E
:103990001A463B681A60B7F90E301846FDF74EF923
:1039A0000346396A1846FDF751FA03461A463B6842
:1039B0005A60B7F910301846FDF740F90346396AE6
:1039C0001846FDF743FA03461A463B689A60B7F972
:1039D00012301846FDF732F90346184600F034F865
:1039E00002463B689A61B7F914301846FDF726F98C
:1039F0000346F9691846FDF729FA03461A463B685B
:103A0000DA60B7F916301846FDF718F90346F96978
:103A10001846FDF71BFA03461A463B681A61B7F9C8
:103A200018301846FDF70AF90346F9691846FDF7FC
:103A30000DFA03461A463B685A6100231846283798
:103A4000BD4680BD0000000090B583B000AF786037
:103A50000D497868FDF7FAF903461846FCF7DCFCD7
:103A600007A3D3E90023FCF779FB03460C4618466D
:103A70002146FCF7D9FF034618460C37BD4690BDDA
:103A8000A4703D0AD74342400000AA4380B483B0EB
:103A900000AF0346FB71FB79032B04D8FB79054A81
:103AA00052F8233001E04FF0000318460C37BD46B2
:103AB00080BC7047105F000880B483B000AF03463D
:103AC000FB71FB79032B04D8FB79054A52F82330AC
:103AD00001E04FF0000318460C37BD4680BC70472C
:103AE000205F000880B485B000AF154B9B69144A75
:103AF00043F001039361124B9B6903F00103BB6028
:103B0000BB680F4BDB690E4A43F08053D3610C4B0B
:103B1000DB6903F080537B607B680A4B5B68FB606A
:103B2000FB6823F0E063FB60FB6843F00073FB601D
:103B3000044AFB68536000BF1437BD4680BC704721
:103B4000001002400000014080B588B000AF7860EE
:103B500007F1100300221A605A609A60DA607B68ED
:103B60001B681C4A934231D11B4B9B691A4A43F490
:103B700080439361184B9B6903F48043FB60FB68AF
:103B8000154B9B69144A43F004039361124B9B69E4
:103B900003F00403BB60BB684FF400733B61022376
:103BA0007B610323FB6107F1100319460B48FDF706
:103BB0005FFB4FF480633B6100237B610023BB61AB
:103BC00007F1100319460548FDF752FB00BF2037E7
:103BD000BD4680BD00380140001002400008014091
:103BE00080B483B000AF7860074B5A697B6813409C
:103BF0007A689A420CBF01230023DBB218460C37C7
:103C0000BD4680BC704700BF0004014080B483B053
:103C100000AF7860034A7B68536100BF0C37BD4634
:103C200080BC70470004014080B400AF00BFBD46B7
:103C300080BC704780B400AFFEE780B400AFFEE701
:103C400080B400AFFEE780B400AFFEE780B400AF01
:103C500000BFBD4680BC704780B400AF00BFBD460A
:103C600080BC704780B400AF00BFBD4680BC7047C9
:103C700080B500AFFDF7FCF900BF80BD80B500AF97
:103C80000120FFF7ADFF0346002B05D00120FFF711
:103C9000BDFF024B01221A7000BF80BDF801002059
:103CA00080B400AF00BFBD4680BC704780B400AF99
:103CB000154B1B68144A43F001031360124B5A68FA
:103CC0001149124B13404B600F4B1B680E4A23F0F7
:103CD000847323F4803313600B4B1B680A4A23F46C
:103CE00080231360084B5B68074A23F4FE0353608C
:103CF000054B4FF41F029A60054B4FF000629A602B
:103D000000BFBD4680BC7047001002400000FFF8B5
:103D100000ED00E0002103E00B4B5B584350043101
:103D20000A480B4B42189A42F6D30A4A02E0002393
:103D300042F8043B084B9A42F9D3FFF7B7FF00F073
:103D40000FF8FEF7AFFE7047B061000800000020DA
:103D5000DC010020DC01002050020020FEE7000012
:103D600070B500250C4E0D4CA41BA410A54209D122
:103D700002F06CF800250A4E0A4CA41BA410A542C0
:103D800005D170BD56F8253098470135EEE756F855
:103D9000253098470135F2E7A8610008A8610008BE
:103DA000A8610008AC61000803460244934200D1B8
:103DB000704703F8011BF9E7002B2DE9F0471E4679
:103DC000BBBF03F100431E4600232D2388B0149F80
:103DD000DDE9121A27F02007462F1446109D0B70BC
:103DE00004D0452F00D10135022300E0032307AAA8
:103DF000049206AACDE902A2CDE900352246334657
:103E000000F0DAFC472F804602D1119BDB0726D554
:103E1000462F08EB050911D198F80030302B0AD154
:103E20000022002320463146FCF7B6FD18B9C5F143
:103E30000105CAF80050DAF8003099440022002346
:103E400020463146FCF7A8FD38B93022079B4B4588
:103E500005D2591C07911A70F8E7CDF81C9040461E
:103E6000079B159AA3EB0803136008B0BDE8F08721
:103E7000F7B50029B4BF2D232B230446B8BF494210
:103E8000092904F8022B437021DD0DF107031F46B9
:103E90000A2691FBF6F506FB1511092D01F13001FB
:103EA00003F8011C03F1FF32294609DC3031023BE3
:103EB00002F8011CBB42224604D3101A03B0F0BD25
:103EC0001346E6E713F8012B04F8012BF2E7302341
:103ED00019448370021DC170EFE700002DE9F04F17
:103EE00091B00C461A9F93461E46054601F018FAFB
:103EF000036818460993FDF745F800230E933B68C5
:103F00000A90073323F0070303F1080294F818809E
:103F1000D4F800A03A60D3E90023C4E91223D4E91D
:103F2000127929F000430B934FF0FF32A64B38462D
:103F30000B99FCF763FD68BB4FF0FF32A24B38468C
:103F40000B99FCF73DFD28BB00220023384649466B
:103F5000FCF72CFD10B12D2384F843309B4F9C4B74
:103F6000B8F1470F98BF1F4603234FF000092361A4
:103F70002AF00403236000965B460FAA21462846D8
:103F800000F0E2F9013040F090804FF0FF3011B0C6
:103F9000BDE8F08F3A464B4638464946FCF72EFDC1
:103FA00010B18C4F8C4BDBE763684AF48062591C7C
:103FB0000DA80EA940D1062363604FF0000C0DF14F
:103FC0003303CDE9012363682260CDE90308009340
:103FD0003A464B46CDE9051C2846FFF7EDFE08F0B2
:103FE000DF03472B074609D10D9BD81C02DB626813
:103FF000934247DDA8F102085FFA88F8B8F1650F2F
:104000000D9924D80139424604F150000D91FFF773
:104010002FFF0E9A81461318012A236102DC2268C1
:10402000D10701D5013323619DF83330002BA2D095
:104030002D2384F843309EE7B8F1670F00F06E81BE
:10404000B8F1470FB9D1002BB7D10123B4E7B8F1CC
:10405000660F19D1002963680CDD216113B922684C
:10406000D20702D501330B4423610D9B4FF00009A9
:10407000A365D9E713B92268D00701D50233F3E766
:104080000123F1E74FF06708DDE90D32934205DBCC
:1040900022682361D107E8D50133E5E7002BCCBFC7
:1040A0000123C3F102031344DEE723685A0507D452
:1040B00023693A4659462846B047013029D164E77A
:1040C000B8F1650F40F2D780D4E912010022002335
:1040D000FCF762FC88B30123404A59462846B047A2
:1040E00001303FF452AFDDE90D239A4202DB236831
:1040F000D8070ED5DDE9092359462846B0470130D7
:104100003FF443AF002704F11A080E9B013BBB426A
:1041100009DC23689F0700F1FD80E0680F9B98424F
:10412000B8BF184633E70123424659462846B047F0
:1041300001303FF42AAF0137E7E70D9B002B2BDC62
:104140000123264A59462846B04701303FF41DAFA7
:104150000D9B23B90E9B13B92368D907D9D5DDE987
:10416000092359462846B04701303FF40EAF4FF0BF
:10417000000804F11A090D9B5B42434501DC0E9BCC
:1041800097E701234A4659462846B04701303FF495
:10419000FCAE08F10108EEE70E9AA36D9A42A8BFA3
:1041A0001A46002A904607DD134659463A462846E5
:1041B000B04701303FF4E9AE04F11A034FF0000AB2
:1041C00028EAE8780B9315E0FFFFEF7F4C5F0008CB
:1041D000485F0008545F0008505F0008585F0008FF
:1041E00001230B9A59462846B04701303FF4CDAE23
:1041F0000AF1010AD4F85890A9EB08035345EFDC03
:10420000DDE90D239A424F4414DB2368DA0711D409
:104210000E9B0D99A3EB0902A3EB01099145A8BFE1
:104220009146B9F1000F0DDC002729EAE97904F184
:104230001A0818E0DDE9092359462846B04701303D
:10424000E6D1A2E64B463A4659462846B0470130E9
:10425000EAD19AE60123424659462846B047013042
:104260003FF493AE0137DDE90D239B1AA3EB09035D
:10427000BB42EFDC4DE70E9A012A01DCDB0738D5A3
:1042800001233A4659462846B04701303FF47DAEF7
:10429000DDE9092359462846B047013007F10107F7
:1042A0003FF473AED4E912010E9B002203F1FF38F4
:1042B0000023FCF771FBC0B943463A4659462846ED
:1042C000B04701300DD160E60123424659462846E9
:1042D000B04701303FF459AE01370E9B013BBB4262
:1042E000F2DC4B4604F15002E4E6002704F11A0820
:1042F000F3E70123E1E70123424659462846B04748
:1043000001303FF442AE0137E3680F9A9B1ABB427B
:10431000F1DC02E7002704F11908F5E7002B3FF470
:1043200094AE4FF0000CCDE9051C0DF13301226075
:10433000CDE90308CDE9012100933A464B462846D2
:10434000FFF73AFD07464FE62DE9F04791461F4635
:104350008A680B6906469342B8BF1346C9F8003015
:1043600091F843200C46DDF8208012B10133C9F8E2
:1043700000302368990642BFD9F800300233C9F8EB
:104380000030256815F0060507D104F1190AE36825
:10439000D9F800209B1AAB4229DC94F843302268FC
:1043A000003318BF012392062ED404F1430239468C
:1043B0003046C047013021D02368E56803F006038A
:1043C000042B18BF0025D9F800204FF0000908BFC2
:1043D000AD1AA368226908BF25EAE5759342C4BFF8
:1043E0009B1AED181A344D451AD1002008E001231C
:1043F000524639463046C047013003D14FF0FF30B6
:10440000BDE8F0870135C2E73020E11881F84300AC
:104410005A1C94F845102244023382F84310C4E732
:104420000123224639463046C0470130E6D009F123
:104430000109D8E72DE9F04301F1430C0C46097E50
:1044400085B06E291746064698460C9A00F0B38050
:1044500022D8632936D00AD8002900F0B98058291B
:1044600000F0838004F1420584F8421032E06429B0
:1044700001D06929F6D120681368050603F104010B
:104480002AD51B681160002B03DA2D225B4284F8C9
:1044900043206F480A2239E0732900F09D8008D834
:1044A0006F2920D07029DDD1236843F020032360D9
:1044B00003E0752917D07829D4D17823654884F88A
:1044C000453055E0136804F14205191D1B68116061
:1044D00084F8423001238CE01B6810F0400F11601B
:1044E00018BF1BB2CFE713682568181D1060280697
:1044F00001D51B6802E06806FBD51B886F2914BF35
:104500000A2208225248002184F843106568002DD1
:10451000A560C0F29580216821F004012160002B84
:104520003DD1002D40F08E806546082A0BD12368CE
:10453000DB0708D5236962689A42DEBF302305F89D
:10454000013C05F1FF35ACEB05032361CDF800809C
:104550003B4603AA21463046FFF7F6FE01304DD117
:104560004FF0FF3005B0BDE8F083394884F84510BE
:10457000136821681D1D1B6815600A060BD5CA0744
:1045800044BF41F0200121601BB9226822F02002C3
:1045900022601022B7E74D0648BF9BB2EFE76546A1
:1045A000B3FBF2F102FB1133C35C05F8013D0B468E
:1045B0000029F5D1B9E713682568181D61691060F5
:1045C00028061B6801D5196002E06A06FBD5198030
:1045D000002365462361B9E71368191D11601D6842
:1045E00062680021284600F0B1FE08B1401B6060FF
:1045F00063682361002384F84330A7E723692A46D0
:1046000039463046C0470130AAD023689B0713D4EF
:10461000E068039B9842B8BF1846A3E701234A46C7
:1046200039463046C04701309AD00135E368039AD5
:104630009B1AAB42F2DCEBE7002504F11909F5E720
:10464000002BACD1037804F1420584F842306CE7CA
:104650005A5F00086B5F00080EB46FF0004100B5B0
:104660009CB01DAB0290069007910491084809493F
:1046700053F8042B0591006802A9019301F06AFA2E
:104680000022029B1A701CB05DF804EB03B0704767
:104690000C0000200802FFFF2DE9F74F03690C69A9
:1046A0008046A342C0F28480013C01F1140700F16E
:1046B000140657F8245056F824000135B0FBF5F5E0
:1046C0004FEA840C06EB0C0307EB0C0901939DB336
:1046D0004FF0000A3846B646D34650F8042B93B242
:1046E00005FB03A3120C4FEA134A05FB02A29BB27F
:1046F000ABEB0303DEF800B04FEA124A1FFA8BFB64
:104700005B441FFA82FBDEF800208145CBEB1242AE
:1047100002EB23429BB243EA02434FEA224B4EF89C
:10472000043BDAD256F80C3033B9019B043B9E426D
:104730001A4631D3C8F81040404601F035F8002839
:1047400026DB30464FF0000C013557F8041BD0F83B
:1047500000E08BB2ACEB03031FFA8EF213440A0C99
:10476000C2EB1E4202EB23429BB243EA0243B9452D
:104770004FEA224C40F8043BE7D256F8242006EBDF
:1047800084032AB9043B9E421A460BD3C8F8104052
:10479000284603B0BDE8F08F1268043B002AC9D157
:1047A000013CC4E71268043B002AEFD1013CEAE770
:1047B0000020EEE7000000002DE9F04F16461F46EE
:1047C000456A95B00446DDF88480CDE902673DB9BD
:1047D000102000F0B3FD6062C0E901550560C560BE
:1047E000636A196851B15A68012393404A608B602B
:1047F000204600F0F8FD0022636A1A603B1EAFBF3E
:104800000023012223F000430393ACBFC8F800301B
:10481000C8F80020AE4BDDF80C8033EA08031BD14A
:1048200042F20F73209A1360029B23B9C8F313005E
:10483000002800F04585229B53B9A64B21E0A64BEA
:1048400006930833229A1360069815B0BDE8F08FDE
:10485000A04B06930333F5E7DDE90267002200234E
:1048600030463946FCF798F8824660B10123209A19
:104870001360229B002B00F02085984B229A136036
:10488000013B0693E0E712AB019313AB0093324672
:104890003B46204601F000F8C8F30A558346002D38
:1048A0007DD0B046C7F3130343F07F5949F4401954
:1048B000A5F2FF35CDF840A00022894B404649467D
:1048C000FBF74AFC7CA3D3E90023FBF7FDFD7CA3A7
:1048D000D3E90023FBF742FC064628460F46FBF7C8
:1048E00089FD79A3D3E90023FBF7EEFD02460B46D1
:1048F00030463946FBF732FC06460F46FCF74AFBCA
:1049000000228246002330463946FCF74FF848B172
:104910005046FBF76FFD32463B46FCF73DF808B9C1
:104920000AF1FF3ABAF1160F5AD8DDE902236D49B0
:1049300001EBCA01D1E90001FCF756F8002851D07B
:1049400000230AF1FF3A0D93129B5D1B6B1E079328
:1049500043BF0023C5F1010907934FF00009BAF1E5
:10496000000F41DB079BCDF830A053440793002391
:1049700008931E9B092B00F28F80052BC4BF043BBC
:104980001E931E9BC8BF0025A3F10203D8BF0125BB
:10499000032B00F28D80DFE803F07B7D2F6FDDE9D4
:1049A00012531D4405F23240202813DDC0F14000AF
:1049B000029B08FA00F805F2124023FA00F048EAD8
:1049C0000000FBF707FD01238046A1F1F879013DC6
:1049D000109371E7029BC0F1200003FA00F0F0E7AA
:1049E0000123B0E70D90AFE7CAF10003089300235D
:1049F000A9EB0A090C93BCE7012309931F9B002B29
:104A000074DD984604930022666A7260042202F103
:104A10001400984271686ED9204600F0B0FC636AB9
:104A200030601B68B8F10E0F069300F2ED80002D88
:104A300000F0EA80DDE90223BAF1000FCDE90E2390
:104A400077DD284A0AF00F034FEA2A1602EBC30368
:104A5000F006D3E90023CDE90A2368D5DDE90E018C
:104A6000214B0325D3E90823FBF758FECDE90201CA
:104A700006F00F061C4F4FE0012309931F9B534480
:104A800003F1010804934346012BB8BF0123BAE7A1
:104A90000023B2E70023F0E70125002309951E93C8
:104AA0004FF0FF3300220493984612231F92AAE787
:104AB00001230993F4E700BF61436F63A787D23FE7
:104AC000B3C8608B288AC63FFB799F501344D33FFD
:104AD0000000F07F855F00087C5F0008595F0008D8
:104AE0000000F83FB85F0008905F000801230493BE
:104AF00098461A46DAE701317160520087E7F107FC
:104B000008D5DDE90A01D7E90023FBF7DDFCCDE993
:104B10000A01013576100837002EF0D1DDE90A23AD
:104B2000DDE90201FBF7FAFDCDE902011BE00225F8
:104B3000A0E700F0A480DDE90E01CAF10006A04B59
:104B400006F00F0203EBC203D3E90023FBF7BCFC22
:104B500002250023CDE902019A4F3611002E40F0C4
:104B60008380002BE0D10D9B002B00F08A80DDE9D3
:104B70000223CDE90A23DDE90A010022924BFBF76B
:104B800015FF00287DD0B8F1000F7AD0049B002BD0
:104B900036DDDDE90A0100228C4BFBF795FCCDE9FF
:104BA0000201049E0AF1FF3701352846FBF722FC7B
:104BB000DDE90223FBF788FC0022854BFBF7CEFAE8
:104BC000A1F15075CDE90A010B95002E5CD1DDE90C
:104BD000020100227F4BFBF7BFFA0A9A2B46CDE970
:104BE0000201FBF701FF002840F08182DDE90201AC
:104BF0000A9A05F10043FBF7D9FE002840F07582C0
:104C0000DDE90E23CDE90223139B002BC0F24B817B
:104C1000BAF10E0F00F34781694B03EBCA03D3E9E6
:104C20000023CDE904231F9B002B80F2D780B8F12D
:104C3000000F00F3D38040F05782DDE90401002229
:104C4000644BFBF741FCDDE90223FBF7C3FE46465C
:104C50004746002840F02D82069B069A5D1C3123B2
:104C60000AF1010A137028E2F20705D5D7E90023FB
:104C7000FBF72AFC01230135761008376EE7022581
:104C800071E75746464690E74D4B03EBC60353E9A1
:104C90000201099B002B48D002460B4600204E49DA
:104CA000FBF73CFDDDE90A23FBF756FACDE90A01E3
:104CB000069DDDE90201FCF76DF91190FBF79AFB07
:104CC00002460B46DDE90201FBF746FA119BCDE9EE
:104CD0000201303305F8013BDDE90A23FBF766FEEC
:104CE000002863D1DDE9022300203749FBF734FABD
:104CF000DDE90A23FBF75AFE002840F0B580069B49
:104D0000EB1A9E427FF77CAFDDE90A0100222F4BB0
:104D1000FBF7DAFB0022CDE90A01DDE902012B4BAA
:104D2000FBF7D2FBCDE90201C3E7DDE90A23FBF77C
:104D3000CBFB069BCDE90A019D191E46DDE9020168
:104D4000FCF728F91190FBF755FB02460B46DDE90D
:104D50000201FBF701FA119BCDE90201303306F89D
:104D6000013BAE424FF0000224D1DDE90A011A4BAB
:104D7000FBF7F4F902460B46DDE90201FBF734FECE
:104D8000002871D1DDE90A2300201349FBF7E4F97B
:104D900002460B46DDE90201FBF708FE00283FF45E
:104DA0002FAF15F8013C6A1E302B01D0BA464AE0FD
:104DB0001546F6E7054BFBF787FBCDE90201BDE79A
:104DC000B85F0008905F00080000F03F000024403A
:104DD00000001C40000014400000E03F069DDDE99B
:104DE0000267DDE9042330463946FBF797FCFCF700
:104DF000D1F88146FBF7FEFADDE90423FBF764FBFB
:104E000002460B4630463946FBF7A6F909F1300653
:104E100005F8016B069E0246AE1BB0450B4635D128
:104E2000FBF79CF9DDE9042306460F46FBF7DCFDA2
:104E3000C8B9DDE9042330463946FBF7ADFD10B1B2
:104E400019F0010F0FD15946204600F0CCFA00238B
:104E5000209A2B700AF101031360229B002B3FF470
:104E6000F3AC1D60F0E4574615F8012C6B1E392A8F
:104E700006D1069A9A4207D13023137013460137A0
:104E80001A7801321A7091E71D46EDE70022994B1E
:104E9000FBF71AFB0022002306460F46FBF77CFDBA
:104EA00000289ED0CFE7099A002A00F088801E9A39
:104EB000012A6DDC109A002A66D003F233434D4676
:104EC000089E079A01211A4420469944079200F04F
:104ED0002AFB0746002D0BDD079B002B08DDAB42AC
:104EE000A8BF2B46079AA9EB0309ED1AD31A07931B
:104EF000089BEBB1099B002B65D08EB13946324639
:104F0000204600F0AFFB5A4601460746204600F017
:104F100013FB59460A90204600F065FA0A9B9B460F
:104F2000089B9A1B04D05946204600F09BFB834601
:104F30000121204600F0F7FA0C9B0646002B00F0FA
:104F4000C6811A460146204600F08CFB1E9B064691
:104F5000012B3EDC029B002B37D1039BC3F31303D1
:104F6000002B34D1039B23F000431B0D1B052BB1F9
:104F7000079B09F1010901330793012308930C9B57
:104F8000002B28D101202EE0129BC3F1360396E7B7
:104F9000089B08F1FF36B342B7BF089B9E1BF21A6D
:104FA0000C9BBFBF08969B180C930026B8F1000F0E
:104FB000B9BFA9EB080500234D46434681E7089E8B
:104FC0004D46099F86E7089AADE70023D6E7029B86
:104FD000D4E700230893336906EB8303186900F0D4
:104FE00054FAC0F12000079B184410F01F0047D06E
:104FF000C0F12003042B3BDD079BC0F11C00814462
:10500000054403440793B9F1000F05DD59464A46AC
:10501000204600F075FB8346079B002B05DD3146DB
:105020001A46204600F06CFB06460D9B53B33146F2
:10503000584600F0B9FB002824DA002359460A221A
:10504000204600F0E7F9099B0AF1FF3A8346002B5E
:1050500000F04481002339460A22204600F0DAF9A4
:10506000049B0746002B4DDC1E9B022B4ADD11E002
:10507000C9D0079A1C331A4499441D441346C1E70A
:105080000346F6E7B8F1000F36DC1E9B022B33DD3A
:10509000CDF81080049B63B931460522204600F00C
:1050A000B9F901460646584600F07EFB00283FF756
:1050B000D3AD1F9B069D6FEA030A4FF000093146EE
:1050C000204600F090F9002F3FF4BDAEB9F1000F7B
:1050D00005D0B94503D04946204600F084F9394649
:1050E000204600F080F9AEE600263746E1E7BA46F2
:1050F0003746B1E500002440099BCDF81080002B15
:1051000000F0F380002D05DD39462A46204600F0E8
:10511000F7FA0746089B002B4CD07968204600F030
:105120002EF905463A6907F10C01023292000C3063
:1051300000F01AF901222946204600F0E1FAB946AA
:105140000746069B0793029B03F001030893314631
:105150005846FFF7A1FA4946054600F1300858467F
:1051600000F022FB3A4602903146204600F036FB22
:10517000C368024603BB01460990584600F014FB81
:105180000346099A11462046099300F02CF9099B21
:10519000A3B91E9A92B9089A82B9B8F1390F29D0E9
:1051A000029B002B01DD05F13108079B5D1C83F894
:1051B000008084E73846C2E70123E3E7029A002A29
:1051C00004DB23D11E9A0ABB089AFAB9002BECDD46
:1051D00059460122204600F093FA3146834600F0FA
:1051E000E3FA002803DCE0D118F0010FDDD0B8F1BC
:1051F000390FD8D1079B079A5D1C3923137015F816
:10520000013C6A1E392B4DD0013352E0079A002B26
:1052100002F1010506DDB8F1390FEBD008F1010804
:10522000079BC4E7069B049AEB1A934205F8018C8E
:1052300021D0594600230A22204600F0EBF8B94558
:1052400083464FF000034FF00A024946204605D13D
:1052500000F0E0F881460746079578E700F0DAF8B5
:105260003946814600230A22204600F0D3F807463B
:10527000F2E74FF0000959460122204600F040FABB
:105280003146834600F090FA0028B8DC02D118F0CD
:10529000010FB4D115F8013C6A1E302B7FF40FAF1B
:1052A0001546F7E7069B934205D13123069A0AF18A
:1052B000010A137003E71546A1E7174BFFF7E1BAA0
:1052C000229B002B7FF4BBAA144BFFF7DABA1E9B7C
:1052D000012B7FF73FAE0C9B089353E6049B002BFA
:1052E00003DC1E9B022B3FF7D5AE069D3146584688
:1052F000FFF7D2F9069B00F1300805F8018B049AFC
:10530000EB1A9A42B5DD594600230A22204600F0E6
:1053100081F88346EAE700BF585F00087C5F000819
:10532000044B1B68186A044B002808BF1846F0306D
:10533000704700BF0C00002070000020024B0146A7
:10534000186800F053BB00BF0C00002010B5C9B2B4
:1053500002449042034601D1002303E01C7801304F
:105360008C42F6D1184610BD10B5431E0A44914236
:1053700000D110BD11F8014B03F8014FF7E770B5EC
:10538000456A04460E463DB91020FFF7D7FF60621C
:10539000C0E901550560C560656AEB6883B1636A61
:1053A000DB6853F82600B8B9012101FA06F56A1D39
:1053B0009200204600F0BFFA60B1C0E901650EE03E
:1053C00021220421204600F0B6FA636AE860DB6817
:1053D000002BE4D1002070BD026843F82620002392
:1053E000C0E90333F7E770B5446A06460D463CB999
:1053F0001020FFF7A3FF7062C0E901440460C4609D
:105400003DB1736A6A68DB6853F82210296043F87B
:10541000225070BD2DE9F0411F4606460C46002380
:105420000D6901F1140CDCF80000013381B202FBBC
:105430000171000C0F0C02FB007089B201EB0041FE
:105440009D424FEA10474CF8041BECDCD7B1A3682F
:10545000AB4212DC616830460131FFF790FF8046B5
:10546000226904F10C01023292000C30FFF77CFF3C
:1054700021463046FFF7B7FF444604EB850301356C
:105480005F6125612046BDE8F081020C12040346ED
:10549000B2B90304102013F07F4F04BF1B02083081
:1054A00013F0704F04BF1B01043013F0404F04BFD2
:1054B0009B000230002B06DB5B0003D501307047F8
:1054C0000020E8E7202070470368014613F0070238
:1054D0000BD0DA0723D4980749BF5B089B0801204B
:1054E0000B605CBF0B600220704798B2A8B9102017
:1054F0001B0C13F0FF0F04BF1B0A08301A0704BF70
:105500001B0904309A0704BF9B080230DA0702D453
:105510005B0806D001300B6070471046E9E70020B9
:1055200070472020704710B50C460121FFF727FF78
:1055300001224461026110BD2DE9F74F14460A694A
:10554000236988469A42BEBF0B46A0461C46D8F83F
:105550001070D4F81090D8F80830D8F8041007EB81
:105560000906B342B8BF0131FFF709FF00F1140586
:105570002B46002205EB860E734516D304F1140268
:1055800008F1140102EB890301EB87070093009BEC
:10559000019293420CD8002E03DD5EF8043D002BEF
:1055A0005DD0066103B0BDE8F08F43F8042BE3E75C
:1055B000B2F800B0BBF1000F23D08946AC464FF0E3
:1055C000000859F8044BDCF800A0A3B21FFA8AFACD
:1055D0000BFB03A34FEA144ADCF8004043444FEAB4
:1055E00014480BFB0A84E24604EB13449BB243EAE3
:1055F00004434F454FEA14484AF8043B2BD8CCF8F3
:105600000480019B0432B3F802A0BAF1000F20D04D
:105610008946A8464FF0000B2B68B9F800C0B8F8CF
:1056200002409BB20AFB0C44C4465C4443EA044378
:105630004CF8043B59F8043BB8F804B01B0C0AFBC7
:1056400003B34F4503EB14434FEA134B05D8C8F897
:10565000043004359BE7D446B3E7E046DDE7013E7E
:1056600099E700002DE9F843154612F003020646BB
:105670000F4607D0214C013A002354F82220FFF7AF
:10568000C9FE0746AD1035D0746A3CB91020FFF74B
:1056900055FE7062C0E901440460C460D6F82480FD
:1056A000D8F808404CB940F271213046FFF73BFF73
:1056B00000230446C8F8080003604FF00008EB0719
:1056C0000AD5394622463046FFF736FF814639462D
:1056D0003046FFF788FE4F466D100BD0206838B972
:1056E000224621463046FFF727FF2060C0F80080A1
:1056F0000446E4E73846BDE8F88300BF8060000850
:105700002DE9F0470C460746164623694FEA621A10
:105710000AEB03094968A36809F10105AB4232DBD2
:105720003846FFF72CFE002380461A4600F114018C
:1057300053452BDB20692AEAEA7A04F1140316F0B8
:105740001F0201EB8A0103EB800C25D00020C2F17F
:10575000200E8A461E68964030434AF8040B53F8E0
:10576000040B9C4520FA0EF014D8486008B109F1EA
:105770000205013D3846C8F810502146FFF733FEB8
:105780004046BDE8F08701315B00C7E741F82320C0
:105790000133CDE75146DCE7043953F8042B9C452F
:1057A00041F8042FF9D8E4E703690A6930B59B1A78
:1057B0000CD19200143014318418114454F8045D53
:1057C00051F8042D954203D005D30123184630BD6E
:1057D000A042F3D3FAE74FF0FF33F7E72DE9F047A4
:1057E0000D460746114628461446FFF7DDFF061E04
:1057F00008D131463846FFF7C2FD0123C0E904361F
:10580000BDE8F087A4BF23462C4638466168A6BF92
:105810001D4600260126FFF7B2FD4FF0000EC660C0
:105820002B69266904F1140205F1140902EB8607BD
:1058300009EB830800F1140152F804AB59F8045B3A
:105840001FFA8AF37344ACB21B1B2C0CC4EB1A4432
:1058500004EB23449BB24FEA244EC84543EA044478
:10586000944641F8044BE7D8BC4504D351F8043DB5
:1058700083B10661C4E75CF8044BA2B2724413140E
:1058800003EB144392B242EA03424FEA234E41F83B
:10589000042BE9E7013EE9E72DE9F3411C46DDE988
:1058A000086501219046FFF76AFDC4F31302C4F3B3
:1058B0000A54074634BB0192B8F1000227D002A86F
:1058C00040F8082DFFF700FE0099F0B1019AC0F1F1
:1058D000200302FA03F30B43C2407B610192019B58
:1058E000002B14BF02210121BB613961C4B1A4F2B4
:1058F000334404443460C0F135002860384602B0B7
:10590000BDE8F08142F48012D5E77961E7E701A8AC
:10591000FFF7DAFD0121019B39617B612030E5E76A
:10592000A0F2324007EB810330601869FFF7ADFD4C
:10593000C0EB4110E1E738B502FB01F4214600F06D
:1059400055F8054618B122460021FEF72DFA2846E3
:1059500038BD000038B50546002943D051F8043C55
:105960000C1F002BB8BFE41800F025FA1E4A13687C
:10597000104633B9636014602846BDE8384000F033
:105980001BBAA3420BD921686218934201BF1A685F
:105990005B685218226063600460EDE713465A6842
:1059A0000AB1A242FAD919685818A0420BD120684E
:1059B0000144581882421960DED1106852680144CF
:1059C00019605A60D8E702D90C232B60D4E720680D
:1059D00021188A4201BF116852680918216062606B
:1059E0005C60C9E738BD00BFFC01002070B5CD1C6C
:1059F00025F0030508350C2D38BF0C25002D064673
:105A000001DBA94203D90C233360002070BD00F0F4
:105A1000D2F9214A1468214691B9204C23681BB958
:105A2000304600F08DF920602946304600F088F9B4
:105A3000431C24D10C233046336000F0BDF9E4E769
:105A40000B685B1B18D40B2B0FD90B60CC18CD50F7
:105A5000304600F0B1F904F10B00231D20F00700DF
:105A6000C31AD3D05A42E250D0E74B688C4216BFDB
:105A7000636013600C46EBE70C464968CCE7C41C36
:105A800024F00304A04205D0211A304600F058F952
:105A90000130CFD02560DBE7FC01002000020020B0
:105AA0002DE9F0478E6882469E420C469046994604
:105AB00037D88A8912F4906F31D00223256809699A
:105AC0006F1A656905EB450595FBF3F509F10103CF
:105AD0003B449D4238BF1D46530530D52946FFF74C
