:020000040800F2
:1000000000500020E14E0008C54A0008D14A00080F
:10001000D74A0008DD4A0008E34A00080000000053
:10002000000000000000000000000000E94A000895
:10003000F54A000800000000014B00080D4B0008C5
:10004000294F0008294F0008294F0008294F0008B0
:10005000294F0008294F0008194B0008294F0008B4
:10006000294F0008294F0008294F0008294F000890
:10007000294F0008294F0008294F0008294F000880
:10008000294F00083D4B0008294F0008294F000860
:10009000294F0008294F0008294F0008294F000860
:1000A000294F0008294F0008294F0008294F000850
:1000B000294F0008294F0008294F0008294F000840
:1000C000294F0008294F0008294F0008294F000830
:1000D000294F0008294F0008294F0008294F000820
:1000E000294F0008294F0008294F00080000000090
:1000F0000000000000000000000000000000000000
:0C01000000000000000000005FF808F1A3
:1001100010B5054C237833B9044B13B10448AFF341
:1001200000800123237010BDE001002000000000CA
:100130004490000808B5034B1BB103490348AFF3D3
:10014000008008BD00000000E40100204490000889
:1001500081F0004102E000BF83F0004330B54FEA78
:1001600041044FEA430594EA050F08BF90EA020FE5
:100170001FBF54EA000C55EA020C7FEA645C7FEA78
:10018000655C00F0E2804FEA5454D4EB5555B8BF9B
:100190006D420CDD2C4480EA020281EA030382EA0C
:1001A000000083EA010180EA020281EA0303362D9E
:1001B00088BF30BD11F0004F4FEA01314FF4801C71
:1001C0004CEA113102D0404261EB410113F0004F83
:1001D0004FEA03334CEA133302D0524263EB43033A
:1001E00094EA050F00F0A780A4F10104D5F1200ED8
:1001F0000DDB02FA0EFC22FA05F2801841F1000133
:1002000003FA0EF2801843FA05F359410EE0A5F106
:1002100020050EF1200E012A03FA0EFC28BF4CF037
:10022000020C43FA05F3C01851EBE37101F00045ED
:1002300007D54FF0000EDCF1000C7EEB00006EEBFA
:100240000101B1F5801F1BD3B1F5001F0CD3490884
:100250005FEA30004FEA3C0C04F101044FEA4452DB
:1002600012F5800F80F09A80BCF1004F08BF5FEA62
:10027000500C50F1000041EB045141EA050130BD42
:100280005FEA4C0C404141EB010111F4801FA4F1E5
:100290000104E9D191F0000F04BF01460020B1FA3A
:1002A00081F308BF2033A3F10B03B3F120020CDA72
:1002B0000C3208DD02F1140CC2F10C0201FA0CF050
:1002C00021FA02F10CE002F11402D8BFC2F1200CB5
:1002D00001FA02F120FA0CFCDCBF41EA0C0190406B
:1002E000E41AA2BF01EB0451294330BD6FEA0404B4
:1002F0001F3C1CDA0C340EDC04F11404C4F120029F
:1003000020FA04F001FA02F340EA030021FA04F3B0
:1003100045EA030130BDC4F10C04C4F1200220FA07
:1003200002F001FA04F340EA0300294630BD21FA45
:1003300004F0294630BD94F0000F83F4801306BF0B
:1003400081F480110134013D4EE77FEA645C18BFFF
:100350007FEA655C29D094EA050F08BF90EA020F96
:1003600005D054EA000C04BF1946104630BD91EA8E
:10037000030F1EBF0021002030BD5FEA545C05D191
:100380004000494128BF41F0004130BD14F58004D0
:100390003CBF01F5801130BD01F0004545F0FE4144
:1003A00041F470014FF0000030BD7FEA645C1ABF79
:1003B000194610467FEA655C1CBF0B46024650EAB0
:1003C000013406BF52EA033591EA030F41F40021DC
:1003D00030BD00BF90F0000F04BF0021704730B562
:1003E0004FF4806404F132044FF000054FF0000137
:1003F00050E700BF90F0000F04BF0021704730B5F8
:100400004FF4806404F1320410F0004548BF4042CC
:100410004FF000013EE700BF42004FEAE2014FEA21
:1004200031014FEA02701FBF12F07F4393F07F4FFC
:1004300081F06051704732F07F4208BF704793F0FF
:100440007F4F04BF41F40021704730B54FF4607412
:1004500001F0004521F000411CE700BF50EA010215
:1004600008BF704730B54FF000050AE050EA0102BE
:1004700008BF704730B511F0004502D5404261EB2E
:1004800041014FF4806404F132045FEA915C3FF46F
:10049000D8AE4FF003025FEADC0C18BF03325FEA0C
:1004A000DC0C18BF033202EBDC02C2F1200300FABD
:1004B00003FC20FA02F001FA03FE40EA0E0021FAE2
:1004C00002F11444BDE600BF70B54FF0FF0C4CF4D0
:1004D000E06C1CEA11541DBF1CEA135594EA0C0F82
:1004E00095EA0C0F00F0DEF82C4481EA030621EABD
:1004F0004C5123EA4C5350EA013518BF52EA0335F8
:1005000041F4801143F4801338D0A0FB02CE4FF0A9
:100510000005E1FB02E506F00042E0FB03E54FF0D9
:100520000006E1FB03569CF0000F18BF4EF0010ED1
:10053000A4F1FF04B6F5007F64F5407404D25FEACD
:100540004E0E6D4146EB060642EAC62141EA555180
:100550004FEAC52040EA5E504FEACE2EB4F1FD0CC2
:1005600088BFBCF5E06F1ED8BEF1004F08BF5FEA40
:10057000500E50F1000041EB045170BD06F00046F2
:1005800046EA010140EA020081EA0301B4EB5C049F
:10059000C2BFD4EB0C0541EA045170BD41F4801197
:1005A0004FF0000E013C00F3AB8014F1360FDEBFBC
:1005B000002001F0004170BDC4F10004203C35DA98
:1005C0000C341BDC04F11404C4F1200500FA05F31B
:1005D00020FA04F001FA05F240EA020001F00042BC
:1005E00021F0004110EBD37021FA04F642EB060132
:1005F0005EEA430E08BF20EAD37070BDC4F10C045C
:10060000C4F1200500FA04F320FA05F001FA04F21F
:1006100040EA020001F0004110EBD37041F100010B
:100620005EEA430E08BF20EAD37070BDC4F1200516
:1006300000FA05F24EEA020E20FA04F301FA05F27E
:1006400043EA020321FA04F001F0004121FA04F226
:1006500020EA020000EBD3705EEA430E08BF20EAF6
:10066000D37070BD94F0000F0FD101F00046400030
:1006700041EB010111F4801F08BF013CF7D041EAB2
:10068000060195F0000F18BF704703F000465200B6
:1006900043EB030313F4801F08BF013DF7D043EA87
:1006A0000603704794EA0C0F0CEA135518BF95EA3D
:1006B0000C0F0CD050EA410618BF52EA4306D1D1C4
:1006C00081EA030101F000414FF0000070BD50EAE3
:1006D000410606BF1046194652EA430619D094EA6D
:1006E0000C0F02D150EA013613D195EA0C0F05D157
:1006F00052EA03361CBF104619460AD181EA0301AB
:1007000001F0004141F0FE4141F470014FF0000062
:1007100070BD41F0FE4141F4780170BD70B54FF0FD
:10072000FF0C4CF4E06C1CEA11541DBF1CEA13557D
:1007300094EA0C0F95EA0C0F00F0A7F8A4EB05045F
:1007400081EA030E52EA03354FEA013100F0888056
:100750004FEA03334FF0805545EA131343EA12631F
:100760004FEA022245EA111545EA10654FEA0026D4
:100770000EF000419D4208BF964244F1FD0404F58D
:10078000407402D25B084FEA3202B61A65EB0305E9
:100790005B084FEA32024FF480104FF4002CB6EBA6
:1007A000020E75EB030E22BFB61A754640EA0C0026
:1007B0005B084FEA3202B6EB020E75EB030E22BF66
:1007C000B61A754640EA5C005B084FEA3202B6EBA7
:1007D000020E75EB030E22BFB61A754640EA9C0066
:1007E0005B084FEA3202B6EB020E75EB030E22BF36
:1007F000B61A754640EADC0055EA060E18D04FEAF4
:10080000051545EA16754FEA06164FEAC30343EA93
:1008100052734FEAC2025FEA1C1CC0D111F4801F60
:100820000BD141EA00014FF000004FF0004CB6E759
:1008300011F4801F04BF01430020B4F1FD0C88BFF8
:10084000BCF5E06F3FF6AFAEB5EB030C04BFB6EB03
:10085000020C5FEA500C50F1000041EB045170BDF6
:100860000EF0004E4EEA113114EB5C04C2BFD4EB23
:100870000C0541EA045170BD41F480114FF0000EA7
:10088000013C90E645EA060E8DE60CEA135594EA23
:100890000C0F08BF95EA0C0F3FF43BAF94EA0C0F26
:1008A0000AD150EA01347FF434AF95EA0C0F7FF49B
:1008B00025AF104619462CE795EA0C0F06D152EAEF
:1008C00003353FF4FDAE1046194622E750EA4106D3
:1008D00018BF52EA43067FF4C5AE50EA41047FF4E4
:1008E0000DAF52EA43057FF4EBAE12E74FF0FF3C49
:1008F00006E000BF4FF0010C02E000BF4FF0010C1A
:100900004DF804CD4FEA410C7FEA6C5C4FEA430C92
:1009100018BF7FEA6C5C1BD001B050EA410C0CBFE1
:1009200052EA430C91EA030F02BF90EA020F002043
:10093000704710F1000F91EA030F58BF994208BFAA
:1009400090422CBFD8176FEAE37040F00100704767
:100950004FEA410C7FEA6C5C02D150EA013C07D1BE
:100960004FEA430C7FEA6C5CD6D152EA033CD3D009
:100970005DF8040B704700BF8446104662468C4603
:100980001946634600E000BF01B5FFF7B7FF002836
:1009900048BF10F1000F01BD4DF808EDFFF7F4FF5F
:1009A0000CBF012000205DF808FB00BF4DF808EDEA
:1009B000FFF7EAFF34BF012000205DF808FB00BF0D
:1009C0004DF808EDFFF7E0FF94BF012000205DF82F
:1009D00008FB00BF4DF808EDFFF7CEFF94BF0120E4
:1009E00000205DF808FB00BF4DF808EDFFF7C4FFDD
:1009F00034BF012000205DF808FB00BF4FEA410C26
:100A00007FEA6C5C02D150EA013C0AD14FEA430C08
:100A10007FEA6C5C02D152EA033C02D14FF0000045
:100A200070474FF0010070474FEA4102B2F1E043D6
:100A300024BFB3F5001CDCF1FE5C0DD901F0004CC5
:100A40004FEAC0024CEA5070B2F1004F40EB830015
:100A500008BF20F00100704711F0804F21D113F141
:100A60003872BCBF01F00040704741F480114FEA7A
:100A70005252C2F11802C2F1200C10FA0CF320FA03
:100A800002F018BF40F001004FEAC1234FEAD32320
:100A900003FA0CFC40EA0C0023FA02F34FEA43038A
:100AA000CCE77FEA625307D150EA01331EBF4FF013
:100AB000FE4040F44000704701F0004040F0FE402E
:100AC00040F40000704700BF80F0004002E000BF2B
:100AD00081F0004142001FBF5FEA410392EA030F29
:100AE0007FEA226C7FEA236C6AD04FEA1262D2EB73
:100AF0001363C1BFD218414048404140B8BF5B4278
:100B0000192B88BF704710F0004F40F4000020F010
:100B10007F4018BF404211F0004F41F4000121F026
:100B20007F4118BF494292EA030F3FD0A2F1010270
:100B300041FA03FC10EB0C00C3F1200301FA03F1AE
:100B400000F0004302D5494260EB4000B0F5000FD1
:100B500013D3B0F1807F06D340084FEA310102F190
:100B60000102FE2A51D2B1F1004F40EBC25008BF42
:100B700020F0010040EA03007047490040EB00000C
:100B800010F4000FA2F10102EDD1B0FA80FCACF13B
:100B9000080CB2EB0C0200FA0CF0AABF00EBC2503A
:100BA00052421843BCBFD0401843704792F0000F28
:100BB00081F4000106BF80F400000132013BB5E77B
:100BC0004FEA41037FEA226C18BF7FEA236C21D0F1
:100BD00092EA030F04D092F0000F08BF0846704756
:100BE00090EA010F1CBF0020704712F07F4F04D124
:100BF000400028BF40F00040704712F100723CBF37
:100C000000F50000704700F0004343F0FE4040F460
:100C1000000070477FEA226216BF08467FEA23631E
:100C20000146420206BF5FEA412390EA010F40F409
:100C3000800070474FF0000304E000BF10F0004355
:100C400048BF40425FEA000C08BF704743F096433C
:100C500001464FF000001CE050EA010208BF704757
:100C60004FF000030AE000BF50EA010208BF7047DE
:100C700011F0004302D5404261EB41015FEA010CF3
:100C800002BF84460146002043F0B64308BFA3F1EB
:100C90008053A3F50003BCFA8CF2083AA3EBC253CD
:100CA00010DB01FA02FC634400FA02FCC2F12002EC
:100CB000BCF1004F20FA02F243EB020008BF20F023
:100CC0000100704702F1200201FA02FCC2F1200289
:100CD00050EA4C0021FA02F243EB020008BF20EA7E
:100CE000DC7070474FF0FF0C1CEAD0521EBF1CEAAC
:100CF000D15392EA0C0F93EA0C0F6FD01A4480EA9A
:100D0000010C400218BF5FEA41211ED04FF0006382
:100D100043EA501043EA5111A0FB01310CF00040AE
:100D2000B1F5000F3EBF490041EAD3715B0040EAD4
:100D3000010062F17F02FD2A1DD8B3F1004F40EBA4
:100D4000C25008BF20F00100704790F0000F0CF077
:100D5000004C08BF49024CEA502040EA51207F3A3B
:100D6000C2BFD2F1FF0340EAC250704740F4000016
:100D70004FF00003013A5DDC12F1190FDCBF00F007
:100D800000407047C2F10002410021FA02F1C2F1B5
:100D9000200200FA02FC5FEA310040F1000053EA51
:100DA0004C0308BF20EADC70704792F0000F00F09F
:100DB000004C02BF400010F4000F013AF9D040EAA5
:100DC0000C0093F0000F01F0004C02BF490011F439
:100DD000000F013BF9D041EA0C018FE70CEAD15337
:100DE00092EA0C0F18BF93EA0C0F0AD030F0004CB7
:100DF00018BF31F0004CD8D180EA010000F000406B
:100E0000704790F0000F17BF90F0004F084691F028
:100E1000000F91F0004F14D092EA0C0F01D1420262
:100E20000FD193EA0C0F03D14B0218BF084608D12B
:100E300080EA010000F0004040F0FE4040F4000075
:100E4000704740F0FE4040F4400070474FF0FF0C08
:100E50001CEAD0521EBF1CEAD15392EA0C0F93EA4F
:100E60000C0F69D0A2EB030280EA010C49024FEAA1
:100E7000402037D04FF0805343EA111143EA10135A
:100E80000CF000408B4238BF5B0042F17D024FF412
:100E9000000C8B4224BF5B1A40EA0C00B3EB510FED
:100EA00024BFA3EB510340EA5C00B3EB910F24BFD6
:100EB000A3EB910340EA9C00B3EBD10F24BFA3EB5B
:100EC000D10340EADC001B0118BF5FEA1C1CE0D123
:100ED000FD2A3FF650AF8B4240EBC25008BF20F0D6
:100EE000010070470CF0004C4CEA50207F32C2BF2A
:100EF000D2F1FF0340EAC250704740F400004FF0C7
:100F00000003013A37E792F0000F00F0004C02BFF7
:100F1000400010F4000F013AF9D040EA0C0093F0C1
:100F2000000F01F0004C02BF490011F4000F013B1B
:100F3000F9D041EA0C0195E70CEAD15392EA0C0F83
:100F400008D142027FF47DAF93EA0C0F7FF470AFBB
:100F5000084676E793EA0C0F04D14B023FF44CAFFE
:100F600008466EE730F0004C18BF31F0004CCAD193
:100F700030F000427FF45CAF31F000437FF43CAFCF
:100F80005FE700BF4FF0FF3C06E000BF4FF0010CF1
:100F900002E000BF4FF0010C4DF804CD4FEA4002D3
:100FA0004FEA41037FEA226C18BF7FEA236C11D01D
:100FB00001B052EA530C18BF90EA010F58BFB2EBD0
:100FC000030088BFC81738BF6FEAE17018BF40F050
:100FD000010070477FEA226C02D15FEA402C05D104
:100FE0007FEA236CE4D15FEA412CE1D05DF8040B89
:100FF000704700BF844608466146FFE70FB5FFF71C
:10100000C9FF002848BF10F1000F0FBD4DF808EDD3
:10101000FFF7F4FF0CBF012000205DF808FB00BFC4
:101020004DF808EDFFF7EAFF34BF012000205DF81E
:1010300008FB00BF4DF808EDFFF7E0FF94BF01206B
:1010400000205DF808FB00BF4DF808EDFFF7D2FF68
:1010500094BF012000205DF808FB00BF4DF808EDAB
:10106000FFF7C8FF34BF012000205DF808FB00BF78
:101070004FEA40024FEA41037FEA226C02D15FEA65
:10108000402C08D17FEA236C02D15FEA412C02D1C7
:101090004FF0000070474FF0010070474FEA4002E8
:1010A000B2F1FE4F0FD34FF09E03B3EB12620DD996
:1010B0004FEA002343F0004310F0004F23FA02F000
:1010C00018BF404270474FF00000704712F1610FA7
:1010D00001D1420205D110F0004008BF6FF000407E
:1010E00070474FF000007047034613F8012B002AA9
:1010F000FBD1181A013870474FEA410212F500126D
:1011000015D211D56FF47873B3EB625212D94FEA4E
:10111000C12343F0004343EA505311F0004F23FA38
:1011200002F018BF404270474FF00000704750EA8D
:10113000013005D111F0004008BF6FF0004070474A
:101140004FF00000704700BF80B500AF084B1B6830
:10115000074A43F010031360032000F007F9002052
:1011600000F008F803F00CFC0023184680BD00BF17
:101170000020024080B582B000AF7860124B1A6840
:10118000124B1B7819464FF47A73B3FBF1F3B2FBA1
:10119000F3F3184600F011F90346002B01D00123A8
:1011A0000EE07B680F2B0AD8002279684FF0FF30E1
:1011B00000F0E7F8064A7B681360002300E0012393
:1011C00018460837BD4680BD0800002004000020F6
:1011D0000000002080B400AF054B1B781A46054B79
:1011E0001B681344034A136000BFBD4680BC7047B0
:1011F000040000200C02002080B400AF024B1B68EA
:101200001846BD4680BC70470C02002080B485B0F3
:1012100000AF78607B6803F00703FB600C4BDB6872
:10122000BB60BA684FF6FF031340BB60FB681A024D
:10123000BB68134343F0BF6343F40033BB60044A0D
:10124000BB68D36000BF1437BD4680BC704700BF89
:1012500000ED00E080B400AF044BDB681B0A03F034
:1012600007031846BD4680BC704700BF00ED00E094
:1012700080B483B000AF03463960FB7197F9073043
:10128000002B0BDA3B68DAB20C49FB7903F00F0351
:10129000043B1201D2B20B441A7609E03B68DAB281
:1012A000074997F907301201D2B20B4483F80023A3
:1012B00000BF0C37BD4680BC704700BF00ED00E0AA
:1012C00000E100E080B489B000AFF860B9607A60F6
:1012D000FB6803F00703FB61FB69C3F10703042B01
:1012E00028BF0423BB61FB690433062B02D9FB69C9
:1012F000033B00E000237B614FF0FF32BB6902FA41
:1013000003F3DA43BB681A407B699A404FF0FF3120
:101310007B6901FA03F3D9437B680B4013431846FA
:101320002437BD4680BC704780B582B000AF78607E
:101330007B68013BB3F1807F01D301230FE00A4AB0
:101340007B68013B53600F214FF0FF30FFF790FFA8
:10135000054B00229A60044B07221A6000231846AE
:101360000837BD4680BD00BF10E000E080B582B008
:1013700000AF78607868FFF749FF00BF0837BD46C7
:1013800080BD80B586B000AF0346B9607A60FB735C
:1013900000237B61FFF75EFF78617A68B96878693E
:1013A000FFF790FF024697F90F3011461846FFF7F6
:1013B0005FFF00BF1837BD4680BD80B582B000AF6B
:1013C00078607868FFF7B0FF034618460837BD46D7
:1013D00080BD000080B48BB000AF7860396000231E
:1013E000FB610023BB6100237B6100233B62002380
:1013F0003B6100237B6227E101227B6A02FA03F34F
:10140000FB613B681B68FA691340BB61BA69FB6901
:101410009A4240F016813B685B68122B34D0122B45
:101420000DD8022B2BD0022B04D8002B31D0012B4E
:101430001CD048E0032B43D0112B1BD043E0874A3C
:10144000934226D0854A934206D8854A934220D0BB
:10145000844A93421DD036E0834A934219D0834A8E
:10146000934216D0824A934213D02CE03B68DB684B
:101470003B6228E03B68DB6804333B6223E03B6867
:10148000DB6808333B621EE03B68DB680C333B6281
:1014900019E03B689B68002B02D104233B6212E0F9
:1014A0003B689B68012B05D108233B627B68FA6986
:1014B0001A6108E008233B627B68FA695A6102E01E
:1014C00000233B6200BFBB69FF2B01D87B6801E0B2
:1014D0007B680433FB60BB69FF2B02D87B6A9B00EF
:1014E00002E07B6A083B9B003B61FB681A680F21A6
:1014F0003B6901FA03F3DB431A40396A3B6901FA9D
:1015000003F31A43FB681A603B685B6803F080537F
:10151000002B00F09680574B9B69564A43F001031D
:101520009361544B9B6903F00103BB60BB68524A53
:101530007B6A9B08023352F823307B617B6A03F09D
:1015400003039B000F2202FA03F3DB437A69134083
:101550007B617B68494A934213D07B68484A934237
:101560000DD07B68474A934207D07B68464A934236
:1015700001D1032306E0042304E0022302E0012357
:1015800000E000237A6A02F00302920093407A6935
:1015900013437B6138497B6A9B0802337A6941F8BF
:1015A00023203B685B6803F48033002B06D0374B65
:1015B0001A683649BB6913430B6006E0334B1A685F
:1015C000BB69DB43314913400B603B685B6803F444
:1015D0000033002B06D02D4B5A682C49BB691343AE
:1015E0004B6006E0294B5A68BB69DB43274913402F
:1015F0004B603B685B6803F48013002B06D0234BE1
:101600009A682249BB6913438B6006E01F4B9A68B6
:10161000BB69DB431D4913408B603B685B6803F487
:101620000013002B06D0194BDA681849BB69134325
:10163000CB6006E0154BDA68BB69DB431349134006
:10164000CB607B6A01337B627B6A0F2B7FF6D4AE63
:1016500000BF2C37BD4680BC704700BF0000211082
:1016600000001110000012100000311000003210B4
:10167000000022100010024000000140000801405C
:10168000000C014000100140001401400004014022
:1016900080B400AF024B1B681846BD4680BC704743
:1016A0000800002080B500AFFFF7F2FF0146054BB0
:1016B0005B681B0A03F00703034AD35C21FA03F3B8
:1016C000184680BD00100240B091000880B500AF00
:1016D000FFF7DEFF0146054B5B68DB0A03F00703FB
:1016E000034AD35C21FA03F3184680BD0010024080
:1016F000B091000880B582B000AF78607B68002BA5
:1017000001D101233FE07B6893F83930DBB2002B35
:1017100006D17B68002283F83820786803F062F9EC
:101720007B68242283F839207B681B68DA687B6831
:101730001B6822F40052DA60786800F00BF97B68CD
:101740001B681A697B681B6822F490421A617B68E7
:101750001B685A697B681B6822F02A025A617B6801
:101760001B68DA687B681B6842F40052DA607B68A9
:101770000022DA637B68202283F839207B682022EC
:1017800083F83A20002318460837BD4680BD80B54F
:1017900088B002AFF860B9603B601346FB8000235D
:1017A0007B61FB6893F83930DBB2202B40F08380FB
:1017B000BB68002B02D0FB88002B01D101237BE00A
:1017C000FB6893F83830012B01D1022374E0FB68E9
:1017D000012283F83820FB680022DA63FB682122AB
:1017E00083F83920FFF708FD7861FB68FA889A844E
:1017F000FB68FA88DA8442E0FB68DB8C9BB2013B31
:101800009AB2FB68DA84FB689B68B3F5805F22D1EB
:101810003B6800937B6900228021F86800F050F853
:101820000346002B01D0032346E0BB683B613B69C4
:101830001B881A46FB681B68C2F308025A60FB68E3
:101840001B69002B03D1BB680233BB6017E0BB6888
:101850000133BB6013E03B6800937B690022802169
:10186000F86800F02DF80346002B01D0032323E095
:10187000BB685A1CBA601A78FB681B685A60FB6820
:10188000DB8C9BB2002BB7D13B6800937B690022B5
:101890004021F86800F014F80346002B01D0032320
:1018A0000AE0FB68202283F83920FB68002283F8D5
:1018B0003820002300E0022318461837BD4680BDBB
:1018C00080B584B000AFF860B9603B601346FB712F
:1018D0002CE0BB69B3F1FF3F28D0BB69002B07D0D8
:1018E000FFF78AFC02463B68D31ABA699A421DD2B6
:1018F000FB681B68DA68FB681B6822F4D072DA6048
:10190000FB681B685A69FB681B6822F001025A6178
:10191000FB68202283F83920FB68202283F83A20D4
:10192000FB68002283F8382003230FE0FB681B6864
:101930001A68BB681340BA689A420CBF012300239F
:10194000DBB21A46FB799A42C3D0002318461037FF
:10195000BD4680BDB0B584B000AF78600023FB60A9
:101960007B681B681B6923F440517B68DA687B68DD
:101970001B680A431A617B689A687B681B691A4373
:101980007B685B691343FA681343FB607B681B68E1
:10199000DB6823F4B05323F00C037A681268F9680B
:1019A0000B43D3607B681B685B6923F440717B68E1
:1019B0009A697B681B680A435A617B681B686F4A97
:1019C00093426BD1FFF782FE024613469B001344FD
:1019D0009A001A447B685B689B00B2FBF3F3684A89
:1019E000A2FB03235B091C01FFF770FE02461346AE
:1019F0009B0013449A001A447B685B689B00B2FB0F
:101A0000F3F5FFF763FE024613469B0013449A006A
:101A10001A447B685B689B00B2FBF3F3584AA2FB55
:101A200003235B09642202FB03F3EB1A1B0132332D
:101A3000534AA2FB03235B0903F0F0031C44FFF7A6
:101A400045FE024613469B0013449A001A447B68E5
:101A50005B689B00B2FBF3F5FFF738FE02461346C6
:101A60009B0013449A001A447B685B689B00B2FB9E
:101A7000F3F3434AA2FB03235B09642202FB03F353
:101A8000EB1A1B0132333E4AA2FB03235B0903F02E
:101A90000F027B681B6822449A606AE0FFF702FE2F
:101AA000024613469B0013449A001A447B685B6805
:101AB0009B00B2FBF3F3324AA2FB03235B091C0138
:101AC000FFF7F0FD024613469B0013449A001A44A8
:101AD0007B685B689B00B2FBF3F5FFF7E3FD024612
:101AE00013469B0013449A001A447B685B689B0072
:101AF000B2FBF3F3224AA2FB03235B09642202FB3D
:101B000003F3EB1A1B0132331D4AA2FB03235B09CB
:101B100003F0F0031C44FFF7C5FD024613469B008B
:101B200013449A001A447B685B689B00B2FBF3F590
:101B3000FFF7B8FD024613469B0013449A001A446F
:101B40007B685B689B00B2FBF3F30D4AA2FB0323A7
:101B50005B09642202FB03F3EB1A1B013233084AD0
:101B6000A2FB03235B0903F00F027B681B6822447E
:101B70009A6000BF1037BD46B0BD00BF00380140BD
:101B80001F85EB5180B483B000AF7860054B1A68B5
:101B900004497B6813430B6000BF0C37BD4680BC13
:101BA000704700BF0004014080B483B000AF78608C
:101BB000054B1A687B68DB43034913400B6000BF89
:101BC0000C37BD4680BC70470004014080B483B030
:101BD00000AF7860054B5A6804497B6813434B603B
:101BE00000BF0C37BD4680BC704700BF00040140F9
:101BF00080B483B000AF7860054B5A687B68DB43E4
:101C0000034913404B6000BF0C37BD4680BC704792
:101C10000004014080B483B000AF7860054B9A683F
:101C200004497B6813438B6000BF0C37BD4680BC02
:101C3000704700BF0004014080B483B000AF7860FB
:101C4000054B9A687B68DB43034913408B6000BFF8
:101C50000C37BD4680BC70470004014080B483B09F
:101C600000AF7860054BDA6804497B681343CB60AA
:101C700000BF0C37BD4680BC704700BF0004014068
:101C800080B483B000AF7860054BDA687B68DB43D3
:101C900003491340CB6000BF0C37BD4680BC704782
:101CA0000004014080B584B000AF78600123FB736D
:101CB0007B681B79002B60D07B681B68002B67D08A
:101CC0007B685B79012B0ED0022B17D0002B20D123
:101CD0007B681B681846FFF78BFF7B681B681846FC
:101CE000FFF750FF18E07B681B681846FFF75CFFA2
:101CF0007B681B681846FFF769FF0DE07B681B686F
:101D00001846FFF73FFF7B681B681846FFF75EFF2A
:101D100002E00023FB7300BF7B689B79002B37D068
:101D20007B689B79022B0ED0032B17D0012B20D17F
:101D30007B681B681846FFF7A3FF7B681B68184683
:101D4000FFF768FF25E07B681B681846FFF774FF04
:101D50007B681B681846FFF781FF1AE07B681B68E9
:101D60001846FFF757FF7B681B681846FFF776FF9A
:101D70000FE00023FB7300BF0BE07B681B68184675
:101D8000FFF712FF7B681B681846FFF731FF00E082
:101D900000BFFB7B18461037BD4680BD90B488B0AD
:101DA00000AFF860B9607A60FB681A46BB681B0E2A
:101DB00013441C462268BB687B617B6993FAA3F3DA
:101DC0003B613B69B3FA83F39B000F2101FA03F3F4
:101DD000DB431A40BB68FB61FB6993FAA3F3BB6169
:101DE000BB69B3FA83F39B00796801FA03F31343E9
:101DF000236000BF2037BD4690BC704790B488B0C8
:101E000000AFF860B9607A60FB681A46BB681B0EC9
:101E100013441C462268BB687B617B6993FAA3F379
:101E20003B613B69B3FA83F39B00032101FA03F39F
:101E3000DB431A40BB68FB61FB6993FAA3F3BB6108
:101E4000BB69B3FA83F39B00796801FA03F3134388
:101E5000236000BF2037BD4690BC704790B488B067
:101E600000AFF860B9607A60FB681A46BB681B0E69
:101E700013441C462268BB687B617B6993FAA3F319
:101E80003B613B69B3FA83F39B00042101FA03F33E
:101E9000DB431A40BB68FB61FB6993FAA3F3BB61A8
:101EA000BB69B3FA83F39B00796801FA03F3134328
:101EB000236000BF2037BD4690BC704780B487B018
:101EC00000AFF860B9607A60FB68DA68BB681B0A2B
:101ED000DB431A40BB681B0A7B617B6993FAA3F35F
:101EE0003B613B69B3FA83F3796801FA03F31A4360
:101EF000FB68DA6000BF1C37BD4680BC704780B508
:101F000088B000AF786039603B681B681B021B0C0F
:101F10007B617B693B613B6993FAA3F3FB60FB68E0
:101F2000B3FA83F3FB6140E00122FB699A407B69CD
:101F30001340002B36D0FB69072B06D840F2011264
:101F4000FB6902FA03F3BB6108E0FB69083B4FF051
:101F5000011202FA03F343F08063BB613B685B68E4
:101F60001A46B9697868FFF719FF3B681B691A467A
:101F7000B9697868FFF7A2FF3B685B68012B03D063
:101F80003B685B68092B0DD13B689B681A46B969B1
:101F90007868FFF733FF3B68DB681A46B9697868F1
:101FA000FFF75CFFFB690133FB617A69FB6922FA89
:101FB00003F3002BB8D1012318462037BD4680BD5E
:101FC00080B483B000AF78607B681B6843F0010287
:101FD0007B681A6000BF0C37BD4680BC704780B478
:101FE00083B000AF78607B681B6823F001027B68D8
:101FF0001A6000BF0C37BD4680BC704780B485B006
:1020000000AFF860B9607A60FB689B6823F4034313
:1020100023F0FF03B9687A680A431A43FB689A60A1
:1020200000BF1437BD4680BC7047000090B484B038
:1020300000AFF860B9607A603B6000240024BB68A0
:102040003F4AA2FB03239C0CFB685B6823F03F0321
:1020500044EA0302FB685A60FB681B6A23F03F02F4
:102060007B6838498B4201D8631C08E04FF49673B3
:1020700003FB04F33449A1FB03139B0901331A4307
:10208000FB681A627B682F4A934239D93B68002B60
:1020900017D17A6813465B001344BA68B2FBF3F3B6
:1020A000C3F30B03002B09D07A6813465B0013447B
:1020B000BA68B2FBF3F343F400431DE048F20103B6
:1020C0001AE07A6813469B0013449A001344BA68D6
:1020D000B2FBF3F3C3F30B03002B0BD07A68134668
:1020E0009B0013449A001344BA68B2FBF3F343F421
:1020F000004301E048F201033A6843EA020410E0B9
:102100007B685B00BA68B2FBF3F3C3F30B03032BEA
:1021100005D97B685B00BA68B2FBF3F300E00423E7
:102120001C46FB68DB6923F44F4323F0FF0344EABA
:102130000302FB68DA6100BF1037BD4690BC7047F0
:1021400083DE1B43A0860100D34D621080B483B0B0
:1021500000AF786039607B681B6823F01A023B6827
:102160001A437B681A6000BF0C37BD4680BC7047BD
:1021700080B483B000AF786039607B681B6823F45B
:1021800080623B681A437B681A6000BF0C37BD460B
:1021900080BC704780B586B000AF786039607868E1
:1021A000FFF71DFF07F10803184600F07BF83969B7
:1021B0003B685A683B689B687868FFF737FF3B6865
:1021C000D9683B685B691A467868FFF717FF3B6878
:1021D0001B6819467868FFF7B9FF7868FFF7F0FECB
:1021E0003B681B6919467868FFF7C2FF0123184650
:1021F0001837BD4680BD000080B400AF034B5B685C
:1022000003F00C031846BD4680BC70470010024026
:1022100080B400AF034B5B6803F0F0031846BD4683
:1022200080BC70470010024080B400AF034B5B6875
:1022300003F4E0631846BD4680BC704700100240BE
:1022400080B400AF034B5B6803F460531846BD468F
:1022500080BC70470010024080B400AF034B5B6845
:1022600003F480331846BD4680BC7047001002401E
:1022700080B400AF034B5B6803F470131846BD468F
:1022800080BC70470010024080B400AF044B5B6814
:102290005B0C03F001031846BD4680BC704700BFCD
:1022A0000010024080B582B000AF786000F020F8E6
:1022B00002467B681A607B681B68184600F03AF893
:1022C00002467B685A607B685B68184600F048F8F5
:1022D00002467B689A607B685B68184600F054F899
:1022E00002467B68DA6000BF0837BD4680BD00004B
:1022F00080B582B000AF00237B60FFF77DFF03460F
:10230000042B06D0082B07D0002B09D1084B7B608B
:1023100009E0074B7B6006E000F04AF8786002E0D5
:10232000034B7B6000BF7B6818460837BD4680BD05
:1023300000127A0080B582B000AF7860FFF768FFC6
:1023400003461B0903F00F03044AD35C1A467B685B
:10235000D34018460837BD4680BD00BFA091000895
:1023600080B582B000AF7860FFF75EFF03461B0ABE
:10237000044AD35C1A467B68D34018460837BD46EA
:1023800080BD00BFB091000880B582B000AF78601A
:10239000FFF756FF0346DB0A044AD35C1A467B6804
:1023A000D34018460837BD4680BD00BFB091000835
:1023B00080B582B000AF00237B6000233B60FFF755
:1023C0004BFF38603B68002B03D0B3F5803F03D050
:1023D0000BE00D4B7B600BE0FFF756FF034601332C
:1023E0000A4AB2FBF3F37B6002E0074B7B6000BF5D
:1023F000FFF73EFF03469B0C02337A6802FB03F3B0
:1024000018460837BD4680BD00093D0000127A001D
:1024100080B483B000AF786039607B683A689A62B4
:1024200000BF0C37BD4680BC704780B483B000AF9E
:10243000786039607B683A68DA6200BF0C37BD4665
:1024400080BC704780B483B000AF786039607B682F
:102450003A681A6300BF0C37BD4680BC704780B431
:1024600083B000AF78607B685B6943F001027B68F2
:102470005A6100BF0C37BD4680BC704780B584B040
:1024800000AF786039600023FB607B681B68FB60ED
:102490007B68274A93420BD07B68B3F1804F07D00B
:1024A0007B68244A934203D07B68234A934206D137
:1024B000FB6823F070023B685B681343FB607B683A
:1024C0001B4A93420BD07B68B3F1804F07D07B68E7
:1024D000184A934203D07B68174A934206D1FB689F
:1024E00023F440723B68DB681343FB607B68FA6847
:1024F0001A603B689B6819467868FFF796FF3B684F
:102500001B8819467868FFF783FF7B68084A934267
:1025100005D13B681B7C19467868FFF793FF786804
:10252000FFF79DFF012318461037BD4680BD00BF51
:10253000002C0140000400400008004080B483B03B
:1025400000AF786039607A683B68B2FBF3F3074A02
:10255000013B5360054B00229A60044B05221A6030
:1025600000BF0C37BD4680BC704700BF10E000E0E4
:1025700080B582B000AF78604FF47A717868FFF769
:10258000DDFF00BF0837BD4680BD000080B485B0C8
:1025900000AF78600E4B1B68FB60FB687B68B3F193
:1025A000FF3F0CD07B6801337B6008E0084B1B6861
:1025B00003F48033002B02D07B68013B7B607B6897
:1025C000002BF3D100BF1437BD4680BC704700BF5D
:1025D00010E000E080B483B000AF7860034A7B680D
:1025E000136000BF0C37BD4680BC70470800002058
:1025F00080B400AF044BDB681B0A03F007031846E6
:10260000BD4680BC704700BF00ED00E080B483B0E1
:1026100000AF0346FB71FB7903F01F02064997F9EF
:1026200007305B09012000FA02F241F8232000BFC5
:102630000C37BD4680BC704700E100E080B483B039
:1026400000AF03463960FB7197F90730002B0BDAB6
:102650003B68DAB20C49FB7903F00F03043B12012B
:10266000D2B20B441A7609E03B68DAB2074997F90F
:1026700007301201D2B20B4483F8002300BF0C379D
:10268000BD4680BC704700BF00ED00E000E100E007
:1026900080B489B000AFF860B9607A60FB6803F07D
:1026A0000703FB61FB69C3F10703042B28BF042365
:1026B000BB61FB690433062B02D9FB69033B00E0D5
:1026C00000237B614FF0FF32BB6902FA03F3DA4368
:1026D000BB681A407B699A404FF0FF317B6901FA71
:1026E00003F3D9437B680B40134318462437BD4698
:1026F00080BC704780B485B000AFF860B9607A6084
:10270000BB68013B0C4AD35C1A46FB6813441B6848
:1027100023F4804323F01003BA68013A06498A5C27
:102720001146FA680A4411467A6813430B6000BFE9
:102730001437BD4680BC70476090000880B485B0F7
:1027400000AFF860B9607A60BB68013B0B4AD35CAC
:102750001A46FB6813441B6823F02002BB68013B48
:102760000649CB5C1946FB680B4419467B6813434A
:102770000B6000BF1437BD4680BC704760900008F6
:1027800080B485B000AFF860B9607A60BB68013B87
:102790000B4AD35C1A46FB6813441B6823F04002C3
:1027A000BB68013B0649CB5C1946FB680B441946E4
:1027B0007B6813430B6000BF1437BD4680BC704775
:1027C0006090000880B485B000AFF860B9607A60AE
:1027D000BB68013B0B4AD35C1A46FB6813441B6879
:1027E00023F08002BB68013B0649CB5C1946FB68BD
:1027F0000B4419467B6813430B6000BF1437BD467A
:1028000080BC70476090000880B485B000AFF8606D
:10281000B9607A60BB68013B0B4AD35C1A46FB681F
:1028200013441B6823F44072BB68013B0649CB5C30
:102830001946FB680B4419467B6813430B6000BFC5
:102840001437BD4680BC70476090000880B485B0E6
:1028500000AFF860B9607A60BB68013B0B4AD35C9B
:102860001A46FB6813441B6823F44062BB68013BB3
:102870000649CB5C1946FB680B4419467B68134339
:102880000B6000BF1437BD4680BC704760900008E5
:1028900080B485B000AFF860B9607A60BB68013B76
:1028A0000B4AD35C1A46FB6813441B6823F440525E
:1028B000BB68013B0649CB5C1946FB680B441946D3
:1028C0007B6813430B6000BF1437BD4680BC704764
:1028D0006090000880B483B000AF78607B681B68AC
:1028E00023F080027B681A6000BF0C37BD4680BCB5
:1028F000704780B483B000AF78607B681B6823F0BA
:1029000040027B681A6000BF0C37BD4680BC704730
:1029100080B483B000AF786039607B68DB6823F0F7
:10292000FE023B681A437B68DA6000BF0C37BD4685
:1029300080BC704780B483B000AF78607B68DB6890
:1029400023F001027B68DA6000BF0C37BD4680BC13
:102950007047000080B400AF044B1B68034A43F487
:102960008033136000BFBD4680BC7047001002403A
:1029700080B400AF064B1B6803F40033B3F5003F8F
:102980000CBF01230023DBB21846BD4680BC704754
:102990000010024080B483B000AF7860064B5B68E3
:1029A00023F0030204497B6813434B6000BF0C37DC
:1029B000BD4680BC704700BF0010024080B400AF2D
:1029C000034B5B6803F00C031846BD4680BC7047A0
:1029D0000010024080B483B000AF7860064B5B68A3
:1029E00023F0F00204497B6813434B6000BF0C37AF
:1029F000BD4680BC704700BF0010024080B483B069
:102A000000AF7860064B5B6823F4E06204497B68A2
:102A100013434B6000BF0C37BD4680BC704700BFFE
:102A20000010024080B483B000AF7860064B5B6852
:102A300023F4605204497B6813434B6000BF0C379A
:102A4000BD4680BC704700BF0010024080B400AF9C
:102A5000044B1B68034A43F08073136000BFBD46FC
:102A600080BC70470010024080B400AF064B1B686A
:102A700003F00073B3F1007F0CBF01230023DBB22E
:102A80001846BD4680BC70470010024080B483B039
:102A900000AF78603960084B5B6823F47C127B6878
:102AA00003F440313B680B43034913434B6000BFC1
:102AB0000C37BD4680BC70470010024080B485B022
:102AC00000AF7860084B5A6907497B6813434B6134
:102AD000054B5A697B681340FB60FB6800BF1437E5
:102AE000BD4680BC704700BF0010024080B485B076
:102AF00000AF7860084BDA6907497B681343CB6104
:102B0000054BDA697B681340FB60FB6800BF143734
:102B1000BD4680BC704700BF0010024080B485B045
:102B200000AF7860084B9A6907497B6813438B6153
:102B3000054B9A697B681340FB60FB6800BF143744
:102B4000BD4680BC704700BF0010024080B483B017
:102B500000AF7860064B1B6823F0070204497B68CE
:102B600013430B6000BF0C37BD4680BC704700BFED
:102B70000020024080B400AF034B1B6803F0070342
:102B80001846BD4680BC70470020024080B483B028
:102B900000AF78607B68042B06D1094B1B68084A9C
:102BA00043F00403136005E0054B1B68044A23F05F
:102BB0000403136000BF0C37BD4680BC704700BFE4
:102BC00010E000E080B483B000AF78607B681B68E1
:102BD00043F001027B681A6000BF0C37BD4680BC21
:102BE000704780B483B000AF78607B681B6823F0C7
:102BF00080027B681A6000BF0C37BD4680BC7047FE
:102C000080B483B000AF786039607B683A685A62FC
:102C100000BF0C37BD4680BC704780B483B000AFA6
:102C200078607B685B6A18460C37BD4680BC70478D
:102C300080B483B000AF786039607B689B6823F410
:102C4000804323F007033A681A437B689A6000BF09
:102C50000C37BD4680BC704780B483B000AF78604D
:102C600039607B685B6823F070023B681A437B68BD
:102C70005A6000BF0C37BD4680BC704780B483B03B
:102C800000AF78607B689B6823F080027B689A6065
:102C900000BF0C37BD4680BC704790B488B000AF11
:102CA000F860B9607A60FB681A46BB681B0E134473
:102CB0001C462268BB687B617B6993FAA3F33B6186
:102CC0003B69B3FA83F39B000F2101FA03F3DB4363
:102CD0001A40BB68FB61FB6993FAA3F3BB61BB6954
:102CE000B3FA83F39B00796801FA03F3134323607B
:102CF00000BF2037BD4690BC704780B487B000AF9E
:102D0000F860B9607A60FB68DA68BB681B0ADB436D
:102D10001A40BB681B0A7B617B6993FAA3F33B6192
:102D20003B69B3FA83F3796801FA03F31A43FB684A
:102D3000DA6000BF1C37BD4680BC704780B485B0E8
:102D400000AF78603960114A3B68DBB2023352F859
:102D500023203B681B0CDB4302EA03013B681B0C8E
:102D6000FB60FB6893FAA3F3BB60BB68B3FA83F321
:102D70007A689A4005483B68DBB20A43023340F860
:102D8000232000BF1437BD4680BC704700000140BF
:102D900080B584B000AF78607868FEF7A5F9F86078
:102DA000FB689AB24FF47A7379680348FEF7EFFC38
:102DB00000BF1037BD4680BD1002002080B594B022
:102DC00000AF786007F10C037A680949184604F0EF
:102DD00041FD0346FB64FB6C9AB207F10C014FF412
:102DE0007A730448FEF7D3FC00BF5037BD4680BD60
:102DF000909000081002002080B500AF0148FFF756
:102E0000C7FFFEE79890000884B0B0B5A4B004AF47
:102E1000786107F1940080E80E0007F16803796992
:102E2000184601F003FBD7F89410D7F89820D7F88C
:102E30009C3007F15C0001F0BBFED7F8A010D7F87A
:102E4000A420D7F8A83007F1500001F0B1FE07F137
:102E5000500393E8070001F0ABFFF867384607F12D
:102E600050030ECB01F0BEFE07F150033A4607CAED
:102E700083E80700F96FD7F8B000FDF733FF03468A
:102E800007F14000009307F150030ECB01F0AEF9BB
:102E90003B4607F1400207F16801184601F000FACD
:102EA00007F168043B460FCB84E80F0007F13405B7
:102EB00001AC07F15C0393E8070084E807007B6F2F
:102EC000009307F168030ECB284601F041FB38461A
:102ED00007F134030ECB01F085FE07F134033A46C7
:102EE00007CA83E8070007F128042D4A6B4607CA82
:102EF00083E8070007F134030ECB204601F0AEFE55
:102F0000384607F128030ECB01F06CFE07F12803C9
:102F10003A4607CA83E80700FB6B184602F0C2FA7C
:102F20000346184601F0C6FFB8671E4B1B681946DA
:102F30004FF07E50FDF7CCFD0346B96F1846FDF704
:102F4000D1FE034607F11800009307F128030ECBCA
:102F500001F04CF907F11803184601F08DFA3B46D1
:102F600007F1680207F11801184601F099F907F115
:102F700068043B460FCB84E80F007C693B4607F1B1
:102F800068021146184601F051FA3B460FCB84E81F
:102F90000F0000BF8037BD46BDE8B04004B07047A9
:102FA000409100084C9100082DE9F04FBDB00CAFE6
:102FB000FEF7CAF800F062F900F08EFA00F074FA39
:102FC00000F09EF900F046FA00F012FA9C48FFF774
:102FD000DFFE07F18C03184601F041F9002387F862
:102FE0006E30002387F86C30032387F86F300F238F
:102FF00087F86D30062387F870300023C7F8BC309F
:103000000A23C7F8B030C823C7F8AC308D48FFF7A3
:10301000D9FD07F1740007F16C030CCB8A4900F06D
:10302000E6FD07F174030121184600F098FE07F150
:103030007403184600F05BFE8448FFF7A9FE07F111
:103040007403184600F0BCFD034687F8AB3097F8D0
:10305000AB30002B0FD07E48FFF79AFED7F8BC00AC
:10306000FFF7ACFE7B48FFF793FED7F8AC3018466D
:10307000FFF78CFA02E07848FFF78AFED7F8BC30F9
:103080005A1CC7F8BC20D7F8B0209A4203DD97F845
:10309000AB30002BBDD197F8AB30002B04D06F487C
:1030A000FFF776FEFFF7A8FE4FF00003C7F8A43045
:1030B0004FF00003C7F8B8304FF00003C7F8A03056
:1030C0000023C7F8B430664B93F90030002BFAD0D8
:1030D0005C48FFF7A2FD03461846FDF7ABFD03462B
:1030E000C7F8A4305F49D7F8B800FDF7FBFD0346E9
:1030F000D7F8A4101846FDF7A9FE0346C7F8A0307C
:1031000000215048FFF77CFD554B00221A7007F153
:10311000500207F174031146184600F091FF034670
:10312000002B10D05048FFF733FE07F17403184608
:1031300000F051FD0120FFF729FAD7F8B430013330
:10314000C7F8B43070E04949D7F8A400FDF77EFE17
:10315000034607F18C0504936C4607F15C030FCB23
:1031600084E80F0007F150030ECB2846FFF74CFE12
:1031700007F1800307F18C021146184601F048FA66
:10318000D7F880301846FDF747F9C7E90201D7F8AC
:1031900084301846FDF740F905460E46D7F88830CA
:1031A0001846FDF739F9804689463149D7F8B80005
:1031B000FDF74CFE03461846FDF72EF982468B4676
:1031C0002B49D7F8A400FDF741FE03461846FDF74A
:1031D00023F9C7E90001D7F8A000FDF71DF9034660
:1031E0000C4607F11000D7F8B4200A92CDE9083454
:1031F000D7E90034CDE90634CDE904ABCDE9028945
:10320000CDE90056D7E902231A4904F023FB03460F
:10321000C7F89C30D7F89C309AB207F110014FF4F0
:103220007A731548FEF7B3FA0648FFF7F6FC034633
:103230001846FDF7FFFC0346C7F8B83043E700BF68
:10324000AC900008002C014000540040BC900008E5
:10325000D4900008E4900008E8900008F49000087A
:10326000FC0100200000C8421091000800247449AD
:1032700000007A44289100081002002080B500AFB9
:103280000220FFF763FCFFF775FC0346022B01D019
:1032900000F068F9FFF75EFB00BFFFF769FB03462C
:1032A000012BFAD14FF4E0114FF48030FFF7EEFB21
:1032B000FFF7CCFB00BFFFF7D7FB0346012BFAD18A
:1032C0000020FFF787FB4FF48060FFF797FB00209B
:1032D000FFF7A8FB0220FFF75DFB00BFFFF76EFBC7
:1032E0000346082BFAD10548FFF742F90420FFF7FF
:1032F0004DFC0248FFF76EF900BF80BD00A24A04F2
:1033000080B58CB000AF07F1180300221A605A6034
:103310009A60DA601A615A613B1D00221A605A6095
:103320009A60DA601A610820FFF7F8FB4CF2C003DC
:103330007B600923BB600323FB6004233B613B1DCF
:1033400019462748FEF7DBFD4FF40010FFF7CEFBD0
:10335000002207212348FFF7CDF900220721214849
:10336000FFF796FA002207211E48FFF7E7F900222F
:1033700007211C48FFF704FA802207211948FFF7AC
:1033800021FA002207211748FFF73EFA0022072101
:103390001448FFF75BFA1448FFF7CCFA1248FFF71E
:1033A000A8FA1148FFF796FA0023BB610F4BFB61A7
:1033B00000233B6200237B624FF48063BB624FF4C7
:1033C0008043FB6207F1180319460748FEF7E2FE47
:1033D00000210548FFF79CFA00BF3037BD4680BD8D
:1033E000000C01400000024000540040801A06001A
:1033F00080B586B000AF3B1D00221A605A609A600B
:10340000DA601A614FF40060FFF788FB4723BB8046
:103410000023BB604FF6FF73FB6000233B6100237A
:103420003B753B1D19460A48FFF728F80848FFF787
:10343000D8FB00210648FFF7FBFB00210448FFF7FB
:103440000BFC0348FFF71AFC00BF1837BD4680BDD0
:10345000002C014080B500AF114B124A1A60104B8E
:103460004FF4E1325A600E4B00229A600C4B00225E
:10347000DA600B4B00221A61094B0C225A61084B8F
:1034800000229A61064B0022DA610548FEF732F904
:103490000346002B01D000F065F800BF80BD00BFDF
:1034A000100200200038014080B500AF0120FFF776
:1034B00005FBFFF79DF80346002200211846FFF7A1
:1034C000E7F8034619461120FFF7B8F81120FFF777
:1034D0009DF800BF80BD000080B582B000AF3B46C4
:1034E00000221A605A601020FFF718FB2020FFF717
:1034F00015FB0820FFF712FB0420FFF70FFB4FF42A
:1035000070210120FFF71AFC01233B6001233B716E
:1035100000237B710223BB713B461846FEF7C2FBBA
:10352000002240F201110E48FFF7E7FB082240F2AB
:1035300001110B48FFF7B1FBFFF75AF803460022D1
:1035400000211846FFF7A4F8034619460620FFF7A6
:1035500075F80620FFF75AF800BF0837BD4680BD52
:10356000000C014080B400AF00BFBD4680BC704776
:1035700080B483B000AF78607B681B6843F00102C1
:103580007B681A6000BF0C37BD4680BC704780B4B2
:1035900083B000AF78607B685B6903F08003802BA9
:1035A0000CBF01230023DBB218460C37BD4680BC9C
:1035B000704780B483B000AF78607B685B6903F0CC
:1035C0000403042B0CBF01230023DBB218460C3785
:1035D000BD4680BC704780B483B000AF78607B6824
:1035E0005B6903F04003402B0CBF01230023DBB2D7
:1035F00018460C37BD4680BC704780B483B000AF1E
:1036000078607B685B6903F00103012B0CBF012329
:103610000023DBB218460C37BD4680BC704780B42F
:1036200083B000AF78607B685B6903F00203022B14
:103630000CBF01230023DBB218460C37BD4680BC0B
:10364000704780B485B000AF78607B685B69FB60D1
:10365000FB687B689B69FB60FB6800BF1437BD4655
:1036600080BC704780B483B000AF786039607B68FD
:103670001B6823F480623B681A437B681A6000BFB2
:103680000C37BD4680BC704780B483B000AF786013
:103690007B681B6843F480727B681A6000BF0C373C
:1036A000BD4680BC704780B483B000AF78607B6853
:1036B0001B6843F400727B681A6000BF0C37BD467C
:1036C00080BC704780B483B000AF78607B681B68B3
:1036D00043F400627B681A6000BF0C37BD4680BCB3
:1036E000704780B483B000AF78607B681B6823F4B8
:1036F00000627B681A6000BF0C37BD4680BC704713
:1037000080B483B000AF78607B681B69DBB2184679
:103710000C37BD4680BC704780B483B000AF786082
:103720000B46FB707B681B6923F0FF02FB781A4392
:103730007B681A6100BF0C37BD4680BC7047000033
:1037400080B400AF064B1B6803F48033B3F5803FB1
:103750000CBF01230023DBB21846BD4680BC704776
:1037600010E000E080B584B000AFF860B9607A6026
:103770000BE0FFF7E5FF0346002B06D07B685A1EDF
:103780007A60002B01D1042306E0FB68B8689847F3
:103790000346002BEDD0002318461037BD4680BDF0
:1037A00080B586B000AFF860B9607A603B607B6836
:1037B000002B01D1012371E00023FB75FB681B681E
:1037C0003B613869FFF7D4FE3869FFF78AFF4FF491
:1037D00080613869FFF746FF3869FFF755FF3A689F
:1037E00039693048FFF7BEFF0346FB75FB7D002BB0
:1037F00001D0FB7D52E0FB681B7919463869FFF761
:103800008BFF3A6839692848FFF7ACFF0346FB7520
:10381000FB7D002B01D0FB7D40E03869FFF711FFF5
:1038200033E03A6839692148FFF79CFF0346FB758E
:10383000FB7D002B01D0FB7D30E0BB685A1CBA60D9
:103840001B7819463869FFF767FF3869FFF7B1FE43
:103850000346002B0DD07B68002B0AD0BB685A1C96
:10386000BA601B7819463869FFF756FF7B68013B41
:103870007B603A6839690E48FFF774FF0346FB75B1
:10388000FB7D002B01D0FB7D08E07B685A1E7A602F
:10389000002BC6D13869FFF706FF002318461837FA
:1038A000BD4680BDFB3500081F3600088F35000877
:1038B000B335000890B587B000AFF860B9607A60A2
:1038C0003B607B68002B01D1012320E10023FB75C5
:1038D000FB681B683B613869FFF74AFE3869FFF7F0
:1038E00000FF4FF480613869FFF7BCFE3869FFF7CD
:1038F000CBFE3A6839698848FFF734FF0346FB7509
:10390000FB7D002B01D0FB7D01E1FB681B7943F0BF
:103910000103DBB219463869FFF7FEFE3A683969E0
:103920007E48FFF71FFF0346FB75FB7D002B01D090
:10393000FB7DECE07B68002B06D13869FFF781FE48
:103940003869FFF7B0FEDDE07B68012B0CD1002168
:103950003869FFF787FE72B63869FFF772FE38697B
:10396000FFF7A1FE62B6CDE07B68022B0CD138696F
:10397000FFF7A8FE72B63869FFF763FE00213869C9
:10398000FFF770FE62B6BDE04FF480613869FFF763
:1039900069FE3869FFF755FEB4E07B68032B00F23F
:1039A00089807B68012B17D13A6839695C48FFF739
:1039B000D9FE0346FB75FB7D002B01D0FB7DA6E005
:1039C000BC68631CBB603869FFF79AFE034623702E
:1039D0007B68013B7B6095E07B68022B27D13A68CE
:1039E00039695048FFF7BEFE0346FB75FB7D002B8F
:1039F00001D0FB7D8BE072B63869FFF754FEBC68DE
:103A0000631CBB603869FFF77BFE034623707B684D
:103A1000013B7B6062B6BC68631CBB603869FFF722
:103A20006FFE034623707B68013B7B606AE03A6867
:103A300039693C48FFF796FE0346FB75FB7D002B7A
:103A400001D0FB7D63E000213869FFF70BFE72B601
:103A5000BC68631CBB603869FFF752FE03462370E5
:103A60007B68013B7B603A6839692E48FFF77AFE34
:103A70000346FB75FB7D002B01D0FB7D47E03869D9
:103A8000FFF711FEBC68631CBB603869FFF738FEA6
:103A9000034623707B68013B7B6062B6BC68631C95
:103AA000BB603869FFF72CFE034623707B68013B3F
:103AB0007B6027E03A6839691948FFF753FE0346EF
:103AC000FB75FB7D002B01D0FB7D20E0BC68631CF7
:103AD000BB603869FFF714FE034623707B68013B27
:103AE0007B603869FFF765FD0346002B0AD0BC6890
:103AF000631CBB603869FFF703FE034623707B68D5
:103B0000013B7B607B68002B7FF447AF00231846A6
:103B10001C37BD4690BD00BFFB3500081F360008AE
:103B2000D7350008B335000880B586B000AFF8601F
:103B3000B9607A603B60FB68DB7A002B02D0FB68DF
:103B4000DB7A13E03B687A68B968F868FFF728FE0B
:103B50000346FB75FB7D002B04D0FB681B681846F1
:103B6000FFF7A1FDFB68FA7DDA72FB7D1846183776
:103B7000BD4680BD80B586B000AFF860B9607A60A0
:103B80003B60FB68DB7A002B02D0FB68DB7A13E03A
:103B90003B687A68B968F868FFF78CFE0346FB75E6
:103BA000FB7D002B04D0FB681B681846FFF77BFDEC
:103BB000FB68FA7DDA72FB7D18461837BD4680BD7A
:103BC00080B483B000AF78607B68DB7A18460C372E
:103BD000BD4680BC704780B483B000AF78607B681E
:103BE0000022DA7200BF0C37BD4680BC704780B53A
:103BF00086B000AFF860B960394681E80C00FB6818
:103C0000002B02D0BB68002B01D101236BE0FB68C5
:103C1000BA681A603B7863F02F03DAB2FB681A7156
:103C2000FB680022DA7275237B7507F1150142F2F9
:103C300010730122F868FFF777FF0346FB75FB7DE1
:103C4000002B01D0FB7D4EE007F1160142F210730C
:103C50000122F868FFF78EFF0346FB75FB7D002B02
:103C600001D0FB7D3FE0BB7D682B04D0FB680322C5
:103C7000DA72032337E07B781946F86800F04EF8D3
:103C80000346FB75FB7D002B01D0FB7D2BE0FB7811
:103C90001946F86800F0C9F80346FB75FB7D002B58
:103CA00001D0FB7D1FE0BB781946F86800F070F882
:103CB0000346FB75FB7D002B01D0FB7D13E03B79B8
:103CC0001946F86800F0FEF80346FB75FB7D002BF3
:103CD00001D0FB7D07E0FB6806333A4610681860A8
:103CE00012791A71002318461837BD4680BD80B579
:103CF00084B000AF78606B233B7300237B7307F1C4
:103D00000C014FF47A7302227868FFF70DFF034627
:103D1000FB73FB7B18461037BD4680BD80B584B071
:103D200000AF78600B46FB7019233B73FB787B7305
:103D300007F10C014FF47A7302227868FFF7F4FE62
:103D40000346FB73FB7B002B01D0FB7B03E07B680E
:103D5000FA78DA71FB7B18461037BD4680BD80B516
:103D600084B000AF78600B46FB7038233B73FB7860
:103D70007B7307F10C014FF47A7302227868FFF726
:103D8000D3FE0346FB73FB7B18461037BD4680BD50
:103D900080B584B000AF78600B46FB701C23BB730A
:103DA00007F10E014FF47A7301227868FFF7BCFE29
:103DB0000346FB73FB7B002B01D0FB7B31E007F15B
:103DC0000D014FF47A7301227868FFF7D3FE0346A2
:103DD000FB73FB7B002B01D0FB7B22E07B7B5BB288
:103DE00023F018035AB2FB78DB005BB213435BB2DB
:103DF000DBB27B731C233B727B7B7B7207F1080178
:103E00004FF47A7302227868FFF78EFE0346FB7345
:103E1000FB7B002B01D0FB7B03E07B68FA781A72F6
:103E2000002318461037BD4680BD80B584B000AF72
:103E300078600B46FB701B23BB7307F10E014FF438
:103E40007A7301227868FFF76FFE0346FB73FB7BF2
:103E5000002B01D0FB7B31E007F10D014FF47A73A9
:103E600001227868FFF786FE0346FB73FB7B002B7D
:103E700001D0FB7B22E07B7B5BB223F018035AB2BC
:103E8000FB78DB005BB213435BB2DBB27B731B23BB
:103E90003B727B7B7B7207F108014FF47A7302223D
:103EA0007868FFF741FE0346FB73FB7B002B01D0D4
:103EB000FB7B03E07B68FA785A72002318461037C0
:103EC000BD4680BD80B584B000AF78600B46FB7006
:103ED0001A23BB7307F10E014FF47A73012278683D
:103EE000FFF722FE0346FB73FB7B002B01D0FB7B1D
:103EF00033E007F10D014FF47A7301227868FFF780
:103F000039FE0346FB73FB7B002B01D0FB7B24E0D7
:103F10007B7B5BB223F007035AB297F9033003F0BF
:103F200007035BB213435BB2DBB27B731A233B72B2
:103F30007B7B7B7207F108014FF47A730222786869
:103F4000FFF7F2FD0346FB73FB7B002B01D0FB7BED
:103F500003E07B68FA789A72002318461037BD4652
:103F600080BD80B586B000AF786039603B23BB75FB
:103F700007F116014FF47A7301227868FFF7D4FD38
:103F80000346FB75FB7D002B01D0FB7D54E007F160
:103F900008014FF47A730E227868FFF7EBFD0346B1
:103FA000FB75FB7D002B01D0FB7D45E03B7A1B02BE
:103FB0001AB27B7A1BB213431AB23B681A80BB7ADF
:103FC0001B0219B2FB7A1AB23B6802330A4312B2DF
:103FD0001A803B7B1B0219B27B7B1AB23B6804330D
:103FE0000A4312B21A80BB7B1B0219B2FB7B1AB2C6
:103FF0003B6806330A4312B21A803B7C1B0219B29B
:104000007B7C1AB23B6808330A4312B21A80BB7C2D
:104010001B0219B2FB7C1AB23B680A330A4312B284
:104020001A803B7D1B0219B27B7D1AB23B680C33B0
:104030000A4312B21A80002318461837BD4680BDC5
:1040400080B58AB000AF7860396007F10C0319467B
:104050007868FFF786FF034687F8273097F8273000
:10406000002B02D097F827306CE07B681B7A18464B
:1040700000F090F838627B685B7A184600F0A0F890
:10408000F861B7F90C301846FCF7D8FD0346396AD9
:104090001846FCF7DBFE03461A463B681A60B7F980
:1040A0000E301846FCF7CAFD0346396A1846FCF77D
:1040B000CDFE03461A463B685A60B7F910301846E1
:1040C000FCF7BCFD0346396A1846FCF7BFFE034601
:1040D0001A463B689A60B7F912301846FCF7AEFDF5
:1040E0000346184600F034F802463B689A61B7F977
:1040F00014301846FCF7A2FD0346F9691846FCF790
:10410000A5FE03461A463B68DA60B7F91630184632
:10411000FCF794FD0346F9691846FCF797FE034641
:104120001A463B681A61B7F918301846FCF786FD45
:104130000346F9691846FCF789FE03461A463B68B0
:104140005A61002318462837BD4680BD0000000094
:1041500090B583B000AF78600D497868FCF776FEC3
:1041600003461846FCF758F907A3D3E90023FBF7E9
:10417000F5FF03460C4618462146FCF755FC03465E
:1041800018460C37BD4690BDA4703D0AD743424047
:104190000000AA4380B483B000AF0346FB71FB79F3
:1041A000032B04D8FB79054A52F8233001E04FF085
:1041B000000318460C37BD4680BC7047809100084C
:1041C00080B483B000AF0346FB71FB79032B04D8A6
:1041D000FB79054A52F8233001E04FF000031846FE
:1041E0000C37BD4680BC70479091000890B58FB0E9
:1041F00002AFF86107F1100080E80E00386C00F0A3
:1042000043FE38644FF08041386CFCF71FFE0346D4
:10421000184600F08BFE03463B624FF08041386C3D
:10422000FCF714FE0346184601F0A0F80346384692
:10423000009307F110030ECB00F092FD07F1240369
:104240003A4607CA83E80700FB691C4607F12003CA
:104250000FCB84E80F00F8693437BD4690BD90B5A8
:104260008BB000AF78614FF07E53BB6138464FF0A2
:1042700000034FF000024FF0000100F099FC07F13D
:104280001C033A4607CA83E807007B691C4607F10E
:1042900018030FCB84E80F0078692C37BD4690BD1A
:1042A000F0B597B004AFF861B9617A61BB691A687B
:1042B0007B691B6819461046FCF714FD03461D4632
:1042C0007B69BA696C4603F1080103C984E80300FD
:1042D0005B68043207CA00F0A6FD0346194628466B
:1042E000FCF7F6FB0346BB6307F12C06BC697B6950
:1042F0006D46043393E8070085E80700231D0ECBC5
:10430000304600F0ABFCBB691A6807F120007B69FE
:10431000009204330ECB00F023FD3D466C4607F1BE
:10432000200393E8070084E8070007F12C030ECB75
:10433000284600F0EAFC07F12C033A4607CA83E856
:1043400007007B691A683846BB69009204330ECBBC
:1043500000F006FD07F120033A4607CA83E807008C
:104360003D466C4607F1200393E8070084E8070008
:1043700007F12C030ECB284600F0C7FC07F13C03E5
:104380003A4607CA83E80700FB691C4607F1380371
:104390000FCB84E80F00F8694C37BD46F0BD80B5FF
:1043A0008CB000AFF861B9617A617B693B623846D5
:1043B0004FF000034FF000024FF0000100F0F8FB57
:1043C00007F124033A4607CA83E80700FB6907F1AF
:1043D0002002B9691846FFF763FFF8693037BD4618
:1043E00080BD000090B58DB002AF786139613B6946
:1043F0001B68BB6138463B690B4A009204330ECB05
:1044000000F0AEFC07F11C033A4607CA83E8070038
:104410007B691C4607F118030FCB84E80F0078690D
:104420002C37BD4690BD00BF000080BF80B588B06E
:1044300000AF78603960386800F048F803464FF004
:104440008041184600F0B0FDF86107F10C033968AF
:104450001846FFF7C7FFF9694FF07E50FCF7F6FCEE
:1044600003461A467B6807F10C011846FFF797FFD1
:1044700078682037BD4680BD90B58BB002AF7861BB
:10448000786900F023F8F8617B691B68F9691846C0
:10449000FCF7DCFC03461A467B691A60F9694FF0A9
:1044A0007E50FCF7D3FC03461A467C6938467B698C
:1044B000009204330ECB00F053FC231D3A4607CA8A
:1044C00083E8070000BF2437BD4690BD90B583B098
:1044D00000AF78607B681A687B681B6819461046D5
:1044E000FCF700FC03461C467B685A687B685B68E7
:1044F00019461046FCF7F6FB034619462046FCF722
:10450000E9FA03461C467B689A687B689B681946F3
:104510001046FCF7E7FB034619462046FCF7DAFA9B
:1045200003461C467B68DA687B68DB6819461046E0
:10453000FCF7D8FB034619462046FCF7CBFA0346A6
:10454000184601F04DF8034618460C37BD4690BD9D
:1045500084B090B593B000AF786107F15C0080E85B
:104560000E0007F15C031846FFF786FF4FF00003CB
:10457000BB6307F13C0307F16C0207CA83E807003D
:1045800007F1280307F15C0211461846FFF74EFFBA
:1045900007F1180307F1380207F15C011846FFF72D
:1045A0007FFE3B4607F1280207F118011846FFF786
:1045B00077FE07F118043B460FCB84E80F007B69B8
:1045C0001C4607F11C0393E8070084E8070078699C
:1045D0004C37BD46BDE8904004B0704790B583B0FD
:1045E00000AF78607B6823F000430122144607493E
:1045F0001846FCF71FFD0346002B01D100231C4683
:10460000E3B218460C37BD4690BD00BFACC5273796
:1046100090B593B000AF786039603B680433FB61BC
:104620003B681B68BB61FB691A68FB691B6819461C
:104630001046FCF757FB03467B64FB691A68FB696D
:1046400004331B6819461046FCF74CFB03463B64D9
:10465000FB691A68FB6908331B6819461046FCF7AA
:1046600041FB0346FB63FB691B681946B869FCF70D
:1046700039FB0346BB63FB6904331A68FB690433E7
:104680001B6819461046FCF72DFB03467B63FB694C
:1046900004331A68FB6908331B6819461046FCF797
:1046A00021FB03463B63FB6904331B681946B86969
:1046B000FCF718FB0346FB62FB6908331A68FB69C9
:1046C00008331B6819461046FCF70CFB0346BB6217
:1046D000FB6908331B681946B869FCF703FB0346FE
:1046E0007B62796B786CFCF7F5F90346B96A18467A
:1046F000FCF7F0F903461C46B969B869FCF7F2FA11
:10470000034619462046FCF7E5F903467B614FF066
:104710007E517869FCF7DCF903461846FFF75EFF27
:104720000346002B3BD17869FFF758FF0346002B67
:1047300035D17969786CFCF789FB03467B6479692C
:10474000386CFCF783FB03463B647969F86BFCF734
:104750007DFB0346FB637969B86BFCF777FB034687
:10476000BB637969786BFCF771FB03467B637969FE
:10477000386BFCF76BFB03463B637969F86AFCF71F
:1047800065FB0346FB627969B86AFCF75FFB034689
:10479000BB627969786AFCF759FB03467B62B96BA7
:1047A000386BFCF795F903464FF040411846FCF78B
:1047B00099FA0346184600F0C3FE0346FB60FB6807
:1047C0001846FBF729FE6AA3D3E90023FCF7EEF8AD
:1047D0000346002B76D0FB681846FBF71DFE66A348
:1047E000D3E90023FCF700F90346002B42D0F96A15
:1047F000F86BFCF76FF9034619461846FCF76AF99F
:1048000003461C46796B786CFCF764F9034619463D
:104810001846FCF75FF9034619464FF07E50FCF747
:1048200057F903461946204600F0D8FE03463B617F
:10483000796A386CFCF74EF9034619461846FCF7BE
:1048400049F903461C46B96A786CFCF743F90346FC
:1048500019461846FCF73EF9034619464FF07E50BC
:10486000FCF736F903461946204600F0B7FE03462A
:10487000BB604CE04FF00003BB60796A386CFCF71A
:1048800027F903464FF040411846FCF72BFA034640
:104890001C46B96A786BFCF71DF9034619461846A1
:1048A000FCF718F9034619464FF07E50FCF710F953
:1048B00003461946204600F091FE034683F000436C
:1048C0003B6124E04FF00003BB60796A386CFCF771
:1048D000FFF803464FF040411846FCF703FA034641
:1048E0001C46B96A786BFCF7F5F80346194618467A
:1048F000FCF7F0F8034619464FF07E50FCF7E8F855
:1049000003461946204600F069FE03463B6100233A
:1049100087F823301AE097F923309B0007F148020B
:10492000134453F8403C97F92340184600F0C2FA6C
:104930000246A30007F148010B4443F8402C97F9C5
:104940002330DBB20133DBB287F8233097F9233011
:10495000022BE0DD7B681C4607F1080393E80700A3
:1049600084E8070078684C37BD4690BDAFF30080FF
:10497000182D4454FB21F93F182D4454FB21F9BF55
:1049800080B485B000AF154B9B69144A43F0010316
:104990009361124B9B6903F00103BB60BB680F4B33
:1049A000DB690E4A43F08053D3610C4BDB6903F0A3
:1049B00080537B607B680A4B5B68FB60FB6823F07D
:1049C000E063FB60FB6843F00073FB60044AFB6834
:1049D000536000BF1437BD4680BC704700100240D2
:1049E0000000014080B588B000AF786007F1100387
:1049F00000221A605A609A60DA607B681B681C4A61
:104A0000934231D11B4B9B691A4A43F48043936113
:104A1000184B9B6903F48043FB60FB68154B9B6953
:104A2000144A43F004039361124B9B6903F004039F
:104A3000BB60BB684FF400733B6102237B610323BF
:104A4000FB6107F1100319460B48FCF7C3FC4FF458
:104A500080633B6100237B610023BB6107F110038E
:104A600019460548FCF7B6FC00BF2037BD4680BD9F
:104A700000380140001002400008014080B483B0BB
:104A800000AF7860074B5A697B6813407A689A4296
:104A90000CBF01230023DBB218460C37BD4680BC97
:104AA000704700BF0004014080B483B000AF78605D
:104AB000034A7B68536100BF0C37BD4680BC70471A
:104AC0000004014080B400AF00BFBD4680BC704709
:104AD00080B400AFFEE780B400AFFEE780B400AF63
:104AE000FEE780B400AFFEE780B400AF00BFBD4674
:104AF00080BC704780B400AF00BFBD4680BC70472B
:104B000080B400AF00BFBD4680BC704780B500AF29
:104B1000FCF760FB00BF80BD80B500AF0120FFF750
:104B2000ADFF0346002B05D00120FFF7BDFF024B70
:104B300001221A7000BF80BDFC01002080B400AFCC
:104B400000BFBD4680BC704780B400AF154B1B68EA
:104B5000144A43F001031360124B5A681149124B77
:104B600013404B600F4B1B680E4A23F0847323F4F1
:104B7000803313600B4B1B680A4A23F480231360B5
:104B8000084B5B68074A23F4FE035360054B4FF460
:104B90001F029A60054B4FF000629A6000BFBD464D
:104BA00080BC7047001002400000FFF800ED00E0FC
:104BB00090B488B000AFF860B9607A603B60BB68C1
:104BC0007B617B68BB613B68FB61FB681C4607F14E
:104BD000140393E8070084E80700F8682037BD460F
:104BE00090BC7047B0B586B000AFF860384680E83A
:104BF0000E003B4693E8070000F0DAF878611649AA
:104C00007869FCF721FA0346002B19D03B687969D3
:104C10001846FCF71BF903461C467B687969184661
:104C2000FCF714F903461D46BB6879691846FCF782
:104C30000DF90346F8682A462146FFF7B9FF06E05A
:104C4000FB681C463B4693E8070084E80700F868C9
:104C50001837BD46B0BD00BFACC52737F0B589B029
:104C600000AFF860384680E80E007B683A6C114669
:104C70001846FCF737F803461C46BB68FA6B11462A
:104C80001846FCF72FF8034619462046FBF720FF8D
:104C900003461C46BB68BA6B11461846FCF722F85F
:104CA00003461D463B683A6C11461846FCF71AF855
:104CB000034619462846FBF70BFF03461D463B6893
:104CC000FA6B11461846FCF70DF803461E467B6842
:104CD000BA6B11461846FCF705F8034619463046EC
:104CE000FBF7F6FE034607F114002A462146FFF7BC
:104CF0005FFFFB681C4607F1140393E8070084E894
:104D00000700F8682437BD46F0BD90B589B000AF04
:104D1000F860384680E80E003B683A6B114618464A
:104D2000FBF7D8FE03467B617B687A6B1146184619
:104D3000FBF7D0FE0346BB61BB68BA6B1146184651
:104D4000FBF7C8FE0346FB61FB681C4607F1140332
:104D500093E8070084E80700F8682437BD4690BD53
:104D600090B589B000AFF860384680E80E003B6827
:104D7000396B1846FBF7B6FF03467B617B68396BDE
:104D80001846FBF7AFFF0346BB61BB68396B18469B
:104D9000FBF7A8FF0346FB61FB681C4607F1140301
:104DA00093E8070084E80700F8682437BD4690BD03
:104DB00090B585B000AF3B1D83E807007B687A683B
:104DC00011461846FBF78EFF03461C46BB68BA68BF
:104DD00011461846FBF786FF034619462046FBF7A7
:104DE00079FE03461C46FB68FA6811461846FBF735
:104DF00079FF034619462046FBF76CFE034618462A
:104E0000FBF70AFB03460C461846214600F0ECFA75
:104E100003460C4618462146FBF706FE0346184695
:104E20001437BD4690BD82B090B585B000AF3C1D33
:104E300084E807007B627B687A6A11461846FBF7B4
:104E400051FF03461C46BB68BA6A11461846FBF779
:104E500049FF034619462046FBF73CFE03461C4625
:104E6000FB68FA6A11461846FBF73CFF03461946F1
:104E70002046FBF72FFE034618461437BD46BDE813
:104E8000904002B07047000080B582B000AF7860FB
:104E900006497868FBF726FF034605491846FBF7E5
:104EA000D5FF034618460837BD4680BDDB0F494095
:104EB0000000344380B582B000AF7860064978685E
:104EC000FBF710FF034605491846FBF7BFFF0346F3
:104ED00018460837BD4680BD00003443DB0F49400B
:104EE000002103E00B4B5B58435004310A480B4B45
:104EF00042189A42F6D30A4A02E0002342F8043BE1
:104F0000084B9A42F9D3FFF71FFE02F027F8FEF78D
:104F10004BF87047A09A000800000020E001002034
:104F2000E001002054020020FEE7000000B51C4A0A
:104F300020F00043934283B018DDB3F1FF4F05DB4F
:104F40000146FBF7C5FD03B05DF804FB694600F0C0
:104F500093FF00F00302012A0ED0022A18D092B16A
:104F600001220199009801F073FDECE7002101F0A6
:104F700049F903B05DF804FB0199009801F068FD60
:104F800000F10040DFE70199009801F03BF9DAE712
:104F90000199009801F036F900F10040D3E700BF15
:104FA000D80F493F000000002DE9F04FA0F50004A4
:104FB0004A00B4F1FE4F0D468A4687B0034680464C
:104FC00002F1FF3180F0F380C348814200F2518149
:104FD0000023039308F1404606F54D06BF4CF70D3C
:104FE000FF05C6F3C34604EB0616A8EB0700FBF764
:104FF00013FAD6E90023FBF767FA0022B84BFBF758
:10500000ABF802460B4680468946FBF75DFA8246BE
:10501000F8158B46FBF7EEF9D6E90223FBF79EF86D
:1050200004F590730646D3E900230F4640464946EF
:10503000FBF74AFA02460B4630463946FBF78EF834
:1050400004F58073CDE90001D3E9002340464946C9
:10505000FBF73AFA04F58473D3E90023FBF77EF8F3
:105060005B4606460F46524659465046FBF72CFA19
:1050700002460B4630463946FBF726FA06460F46EF
:1050800004F58873D3E900234046494604F58C743F
:10509000FBF71AFAD4E90023FBF760F85B465246A7
:1050A000FBF712FADDE90023FBF758F832463B46DE
:1050B000FBF754F8064628460F46FBF7ADF90246C3
:1050C0000B4630463946FBF7FFF90027002348F22C
:1050D000BE06CA0B92B29F4208BF96420D46834657
:1050E0007ED3804C584604F58073D3E90067294687
:1050F00032463B46FBF732F832463B46804689460D
:10510000FBF72AF802460B4658462946FBF724F8D7
:1051100008F01F0A04F58C7304EBCA05D3E90023D9
:1051200006460F46CDE90089D5E90089CDE9048915
:10513000FBF7CAF900226A4BFBF710F804F58473F9
:105140008246D3E900238B4604F5887430463946FD
:10515000FBF7BAF9D4E90023FBF700F8324604461E
:105160000D463B4630463946FBF7AEF902460B4644
:1051700020462946FBF7A8F952465B46FAF7EEFFB0
:10518000DDE900890022039B18EB03084FEAC833CE
:10519000DDE9048918EB020849EB030942464B4656
:1051A000FBF792F9FBF740FC07B0BDE8F08F4A4CE3
:1051B000A1425ED84600721EA24265D800282DDBAF
:1051C00000220392B8F5000FBFF404AF18464FF069
:1051D0009641FBF787FD20F00040A0F13868F9E622
:1051E00039A3D3E90023FBF7FFFB002838D1584649
:1051F000294600223C4BFBF7E3FB28BB34A3D3E951
:10520000002358462946FBF7D1FB00283FF469AF3D
:10521000039807B0BDE8F04F01F0B0BCC5F3C7522A
:105220007E2A17DD962A21DC0121C2F1960201FABD
:1052300002F2511E29420DD12A4018BF4FF480328C
:10524000039228F00048BDE7039807B0BDE8F04F8F
:1052500001F090BC184607B0BDE8F04F01F0A6BCC5
:10526000039807B0BDE8F04F01F08CBC0022039218
:10527000E7E7002A3AD188F48002520012F5000FC5
:105280001BD84FF07E508FE70146FBF72BFDB8F19E
:10529000000F52DB0023002E45D1BAF1000F83DA54
:1052A000184607B0BDE8F04F01F070BC8AF4800AE0
:1052B0004FEA4A0212F5000FE3D929461846FBF7D8
:1052C00009FC71E7AFF3008071D5D1FFFFFF5F40AC
:1052D0000000000000A062C0FEFFFFFEB8910008C1
:1052E0000000F03FF096000800C062C0B8F17E5F99
:1052F000DCD04FEA4808B8F17F4FDED8B2F17F4FDB
:10530000DBD1B8F1FE4FBCD0B8F1FE4F6FEA0A0A0C
:1053100034BF4FF000084FF001084FEADA7AD04569
:105320001FD0002040E7BAF1000FBFF63DAF0146A5
:105330004FF07E50FBF78AFD36E7C5F3C753A3F164
:105340007F02172AA6D80122C3F1960302FA03F3BB
:10535000591E29429ED12B409DD000F1004013469A
:1053600099E729462846FBF7BDFC1DE700B51D4A15
:1053700020F00043934283B019DDB3F1FF4F05DB0A
:105380000146FBF7A5FB03B05DF804FB694600F09E
:1053900073FD00F00300012810D0022819D090B14D
:1053A0000199009800F02EFF00F10040EBE7002289
:1053B000002101F04DFB03B05DF804FB019900985A
:1053C00000F020FFDFE701220199009801F040FB87
:1053D000D9E701220199009801F03AFB00F1004061
:1053E000D1E700BFD80F493F2DE9F04F8BB00446FD
:1053F0000D4600F045F9294B064693F900A00F46EB
:10540000BAF1FF3F12D022462B4620462946FBF731
:10541000F5FA834650B94FF000084FF000092046D6
:10542000294642464B46FBF7C1FA20B93046394679
:105430000BB0BDE8F08F0122194BCDF820B0CDE9BB
:105440000445CDE90245CDE90023BAF1000F17D09C
:1054500042464B4640464946FBF760F9BAF1020F17
:10546000CDE906010ED101F073FD21230360089BF5
:1054700073B9DDE90667304639460BB0BDE8F08FF9
:10548000CDE90689684601F0A7FB0028EFD1EAE7DD
:1054900001F05EFD089B0360EBE700BF0C000020FD
:1054A000E0920008F0B58BB0044600F0ABF9214E55
:1054B000054696F9003001332FD021462046FBF7F0
:1054C000D7FD074648BB204601F09CFC4FF07E51BB
:1054D000FBF7C4FD08B30122174B2046CDE900239A
:1054E0000897FAF799FF02460B461448CDE90423C2
:1054F000CDE9022301F072FB96F90030CDE90601F7
:10550000022B0DD0684601F067FB48B1089B63B9D8
:10551000DDE90601FBF788FA054628460BB0F0BD29
:1055200001F016FD21230360F0E701F011FD089B57
:105530000360EDE70C000020E8920008E492000808
:10554000F0B58BB0044600F0BFFA214E054696F93F
:10555000003001332FD021462046FBF789FD074656
:1055600048BB204601F04EFC4FF07E51FBF776FD24
:1055700008B30122174B2046CDE900230897FAF71C
:105580004BFF02460B461448CDE90423CDE9022324
:1055900001F024FB96F90030CDE90601022B0DD075
:1055A000684601F019FB48B1089B63B9DDE90601C3
:1055B000FBF73AFA054628460BB0F0BD01F0C8FCEF
:1055C00021230360F0E701F0C3FC089B0360EDE7D3
:1055D0000C000020F0920008E492000800F0BCBB30
:1055E000F0B58BB0044600F0B9FD234B064693F9A5
:1055F00000506B1C0AD021462046FBF739FD0746B8
:1056000020B900212046FBF70BFD10B930460BB046
:10561000F0BD0122194B2046CDE900230897FAF787
:10562000FBFE0022CDE90401CDE902010023ADB16A
:1056300010461946FBF772F8022DCDE906010FD18D
:1056400001F086FC21230360089B7BB9DDE906019C
:10565000FBF7EAF9064630460BB0F0BDCDE906236C
:10566000684601F0B9FA0028EED1E9E701F070FCD4
:10567000089B0360EAE700BF0C000020F8920008D6
:105680005F4A2DE9F0418A430D46074600F09480B9
:1056900000290B460446064654DD0F1500F0A7808E
:1056A000C3F31303A7F2FF3743F48013F20FF80795
:1056B00002EB43034FEA460503D5ED0F05EB430329
:1056C000B50000261622B4464FF400117F100CEBF3
:1056D000010098424FEAD5744FEA450503DC1B1AD6
:1056E00000EB010C0E44013A04EB43034FEA510175
:1056F000EDD11046964620244FF0004209E052D0EA
:105700005B00013C03EBD5734FEA52024FEA4505BB
:1057100037D0634502EB0E01F1DD002901EB020EEB
:105720000ADBE046A3EB0C03A94288BF03F1FF3379
:10573000C4466D1A1044E3E7BEF1000FF1DB0CF133
:105740000108EFE721F00042024329D0002945D1AA
:105750000146CA0A153B4905002AFAD012F4801006
:1057600001D048E030465200D40200F10106F9D5DC
:10577000C6F1200401FA06F6E1401F1A41EA0203CD
:105780008EE72B4324D14408731003F17F53F207B3
:1057900003F5001348BF44F0004403EB07512746CC
:1057A0003846BDE8F081A942AAD8002901EB020ED3
:1057B000C2DB98460023BBE702460B46FAF784FE9D
:1057C0003A462B46FAF7CAFC07463846BDE8F08150
:1057D000411C16BF421C01365408D5E70246FAF7B1
:1057E000BBFC02460B46FAF799FF0746D8E71A4674
:1057F00021463B46B2E70E4620244FF0FF30BBE780
:105800000000F07FF8B520F00043B3F17E5F63D075
:1058100004465ADCB3F17C5F62DAB3F10C5F40F30B
:10582000D5800146FBF75EFA05469849FBF75AFA20
:105830009749FBF74FF92946FBF754FA9549FBF7CF
:1058400047F92946FBF74EFA9349FBF743F92946F6
:10585000FBF748FA9149FBF73BF92946FBF742FA77
:105860008F49FBF737F92946FBF73CFA8D49064685
:105870002846FBF737FA8C49FBF72AF92946FBF74C
:1058800031FA8A49FBF726F92946FBF72BFA8849B2
:10589000FBF71EF92946FBF725FA4FF07E51FBF77F
:1058A00019F901463046FBF7D1FA2146FBF71AFAFF
:1058B00001468048FBF70CF901462046FBF708F942
:1058C00001467D48FBF704F9F8BD0146FBF700F9F6
:1058D0000146FBF7BBFAF8BD002875DD0020F8BDD6
:1058E000002875DB01464FF07E50FBF7F1F84FF0D2
:1058F0007C51FBF7F7F9044600F030FC634906469B
:105900002046FBF7EFF96249FBF7E4F82146FBF785
:10591000E9F96049FBF7DCF82146FBF7E3F95E495A
:10592000FBF7D8F82146FBF7DDF95C49FBF7D0F827
:105930002146FBF7D7F95A49FBF7CCF82146FBF78C
:10594000D1F9584905462046FBF7CCF95649FBF7F3
:10595000BFF82146FBF7C6F95449FBF7BBF82146CF
:10596000FBF7C0F95249FBF7B3F82146FBF7BAF948
:105970004FF07E51FBF7AEF801462846FBF766FA7A
:105980003146FBF7AFF926F47F6525F00F05074692
:1059900029462846FBF7A6F901462046FBF798F86A
:1059A000294604463046FBF795F801462046FBF7AA
:1059B0004DFA01463846FBF78DF82946FBF78AF881
:1059C0000146FBF787F8F8BD3C48F8BD3C48F8BDF8
:1059D0004FF07E51FBF77EF84FF07C51FBF782F9D8
:1059E00004462A49FBF77EF92949FBF773F821465B
:1059F000FBF778F92749FBF76BF82146FBF772F9BB
:105A00002549FBF767F82146FBF76CF92349FBF7BB
:105A10005FF82146FBF766F92149FBF75BF8214661
:105A2000FBF760F90646204600F098FB1D49054645
:105A30002046FBF757F91C49FBF74AF82146FBF7CC
:105A400051F91A49FBF746F82146FBF74BF918497B
:105A5000FBF73EF82146FBF745F94FF07E51FBF787
:105A600039F801463046FBF7F1F92946FBF73AF9D8
:105A70001049FBF72DF82946FBF72CF80146FBF7F8
:105A800029F801460F48FBF723F8F8BD08EF113855
:105A9000047F4F3A4611243DA80A4E3E90B0A63EE0
:105AA000ABAA2A3E2EC69D3D6133303F2D570140A3
:105AB00039D119406821A233DA0FC93FDB0F4940C1
:105AC000DB0FC93FDA0F49402DE9F04720F00045D0
:105AD000B5F17E5F04461AD011DCB5F17C5F064655
